:020000040800F2
:10000000B8070020D5010008DD010008DF01000865
:10001000E1010008E3010008E5010008000000001C
:10002000000000000000000000000000E7010008E0
:10003000E901000800000000EB0100088D11000834
:10004000EF010008EF010008EF010008EF010008D0
:10005000EF010008EF010008EF010008EF010008C0
:10006000EF010008EF010008EF010008EF010008B0
:10007000EF010008EF010008EF010008EF010008A0
:10008000EF010008EF010008EF010008EF01000890
:10009000EF010008EF010008EF010008EF01000880
:1000A000EF010008EF010008EF010008EF01000870
:1000B000EF010008EF010008F1110008EF0100084E
:1000C000EF010008EF010008EF010008EF01000850
:1000D000EF0100082D150008EF010008EF010008EE
:1000E000EF010008EF010008EF010008EF01000830
:1000F000EF010008EF010008EF010008EF01000820
:10010000EF010008EF010008EF010008EF0100080F
:10011000EF010008EF010008EF010008EF010008FF
:10012000EF010008EF010008EF010008EF010008EF
:1001300000F002F800F03FF80AA090E8000C8244BA
:100140008344AAF10107DA4501D100F034F8AFF297
:10015000090EBAE80F0013F0010F18BFFB1A43F0A5
:1001600001031847A8250000C8250000103A24BF45
:1001700078C878C1FAD8520724BF30C830C144BF0C
:1001800004680C607047000000230024002500264E
:10019000103A28BF78C1FBD8520728BF30C148BFEA
:1001A0000B607047642900F07780002070471FB50E
:1001B0001FBD10B510BD00F037F91146FFF7F7FF6E
:1001C00001F01EFB00F055F903B4FFF7F2FF03BC8A
:1001D00001F0BDFA0948804709480047FEE7FEE7FD
:1001E000FEE7FEE7FEE7FEE7FEE7FEE7FEE7FEE7E7
:1001F00004480549054A064B704700009111000864
:1002000031010008B8010020B8070020B803002021
:10021000B8030020704700000FB4044910B503AACA
:10022000029800F0D3F810BC5DF814FB48000020E1
:100230002DE9F0410E460446002020622046E16888
:10024000884730B3252805D0D4E901219047206A9A
:10025000401CF2E7E168204600278847050018D0D7
:10026000A5F14100192802D820354FF40067324625
:10027000294620462760FFF795FF40B1012804D0AA
:10028000F61D26F007060836D8E7361DD6E72846BD
:10029000DAE7206ABDE8F0812DE9F0410646002446
:1002A00010687529314616A510D0AFF300800028DC
:1002B00002DA404213A507E031688A0701D512A58A
:1002C00002E0490704D511A5012401E0AFF3008045
:1002D00000210A2206F1240709E0B0FBF2FCB0FB82
:1002E000F2F302FB1C00303078541846491C0028F9
:1002F000F3D123462A463046BDE8F04100F00CB861
:10030000000000002D0000002B0000002000000075
:1003100070477047704770472DE9F0470D46994682
:100320009246044600F124080168880604D5E06975
:1003300021F01001216000E00120A84201DD471BEF
:1003400000E00027A1697A1902EB0900081AA061F0
:100350002078C00602D42046AFF30080002608E0D3
:10036000D4E901211AF806009047206A401C761C47
:1003700020624E45F4DB2078C0060AD52046AFF354
:10038000008006E0D4E9012130209047206A401C1B
:100390002062381EA7F10107F4DC07E0D4E901214F
:1003A00018F805009047206A401C2062281EA5F11D
:1003B0000105F3DC2046AFF300802078000602D56B
:1003C0000220BDE8F0870120FBE70000074B70B575
:1003D0000D467B4400F011F80446284600F020F852
:1003E00010B14FF0FF3070BD204670BD0F140000FB
:1003F00001694A1C02610878704700B58FB0CDE9E9
:1004000001310021059105497944CDE903101146D8
:100410006846FFF70DFF0FB000BD0000E5FFFFFFCE
:10042000007B00F080007047754600F02BF8AE4668
:1004300005006946534620F00700854618B020B5F0
:10044000FFF7D6FEBDE820404FF000064FF0000752
:100450004FF000084FF0000B21F00701AC46ACE86C
:10046000C009ACE8C009ACE8C009ACE8C0098D46D9
:10047000704710B50446AFF300802046BDE8104039
:10048000FFF7A2BE004870475401002021B18268E6
:1004900042F00102826003E0826822F00102826081
:1004A000704721B1826842F48072826003E0826802
:1004B00022F4807282607047014600208A6802F050
:1004C00004020AB1012000E000207047014600202C
:1004D0008A6802F008020AB1012000E0002070479B
:1004E00030B502460020002350680F4C20400D79A3
:1004F0000C6844EA05242043506090680B4C20406F
:10050000D1E902542C434D7944EA450420439060DC
:10051000D06A20F470000C7C641EE4B2234340EAED
:100520000350D06230BD0000FFFEF0FFFDF7F1FF89
:10053000F0B504460D4600200021092D11DDE068CC
:10054000A5F10A0606EB4607072606FA07F18843D7
:10055000A5F10A0606EB460603FA06F10843E06039
:100560000CE0206905EB4507072606FA07F18843EA
:1005700005EB450603FA06F108432061072A0FDA66
:10058000606B561E06EB86071F2606FA07F18843A6
:10059000561E06EB860605FA06F10843606322E064
:1005A0000D2A0FDA206BD61F06EB86071F2606FAE8
:1005B00007F18843D61F06EB860605FA06F10843C5
:1005C000206310E0E06AA2F10D0606EB86071F2605
:1005D00006FA07F18843A2F10D0606EB860605FA36
:1005E00006F10843E062F0BD816841F008018160D6
:1005F000704721B1826842F4A002826003E0826801
:1006000022F4A00282607047816841F00401816099
:100610007047000000B591B00121084600F0D6FBFC
:1006200001214FF4027000F0F1FB0320ADF840000F
:1006300000208DF8430010A9364800F0E1F8364854
:100640000090364801900020029014200390002072
:1006500004908020059040000690800007902020A4
:1006600008900002099000200A9069462C4800F08A
:10067000A9F801212A4800F099F800200B900120E8
:100680008DF830008DF831004FF460200D9000207F
:100690000E9002208DF83C000BA91F484C38FFF744
:1006A0001FFF4FF4404000F085FB05230122082185
:1006B00019484C38FFF73CFF052302220921164850
:1006C0004C38FFF735FF012113484C38FFF7E9FE9E
:1006D000012111484C38FFF7D9FE0F484C38FFF77D
:1006E00083FF00BF0C484C38FFF7F0FE0028F9D11B
:1006F00009484C38FFF788FF00BF07484C38FFF720
:10070000DBFE0028F9D1012103484C38FFF771FFC7
:1007100011B000BD000C01404C24014064000020D9
:10072000080002402DE9F04104460025002600277C
:1007300000201A4908601DE018490968490034F88A
:10074000110001F089FE8046294601F041FD054671
:10075000124909684900491C34F8110001F07CFE77
:100760008046314601F034FD06460C480068401CC6
:100770000A490860094800680A28DDDB084928465C
:1007800001F088FD074908600549304601F082FD07
:10079000054908600020BDE8F08100003C00002011
:1007A00000002041340000203800002021B1026800
:1007B00042F00102026004E002684FF6FE731A4044
:1007C0000260704710B50022026847F6F0739A4342
:1007D0000C6A8B6823430C6923434C6923438C695F
:1007E0002343CC6923434C6A23438C6A23431A4333
:1007F0000260CB6843600B6883604B68C36010BDC8
:100800002DE9F041024600250026002000230024A7
:10081000002791F803C00CF00F0591F803C00CF00D
:10082000100CBCF1000F03D091F802C04CEA050592
:1008300091F800C0BCF1000F31D0146800202BE00B
:100840004FF0010C0CFA00F3B1F800C00CEA0306FB
:100850009E4220D183004FF00F0C0CFA03F7BC43EB
:1008600005FA03FC4CEA040491F803C0BCF1280F1C
:1008700006D14FF0010C0CFA00FCC2F814C00AE0DB
:1008800091F803C0BCF1480F05D14FF0010C0CFAF0
:1008900000FCC2F810C0401C0828D1D31460B1F885
:1008A00000C0BCF1FF0F34DD546800202EE000F1E1
:1008B000080C4FF0010808FA0CF3B1F800C00CEA7C
:1008C00003069E4221D183004FF00F0C0CFA03F770
:1008D000BC4305FA03FC4CEA040491F803C0BCF1E4
:1008E000280F05D100F1080C08FA0CF8C2F81480A2
:1008F00091F803C0BCF1480F07D100F1080C4FF08C
:10090000010808FA0CF8C2F81080401C0828CED361
:100910005460BDE8F0810246002093680B400BB1A3
:10092000012000E00020704741617047016170477D
:1009300008B50121142000F069FA42F20200ADF876
:10094000000048208DF8030069460748FFF758FF6C
:100950000120ADF8000028208DF803006946034807
:10096000FFF74EFF08BD00000010014000080140E5
:1009700008B50121242000F049FA4FF48070ADF849
:10098000000010208DF8030003208DF80200694656
:100990000948FFF735FF4FF480710748FFF7C6FF9E
:1009A0000420ADF8000069460448FFF729FF042140
:1009B0000248FFF7BBFF08BD0008014000140140DA
:1009C0001CB511A103C9CDE90001102000F00AFBFC
:1009D00005226946302000F075F90522694610208D
:1009E00000F0B6F8002406E01DF80400A52800D0A9
:1009F00003E0601CC4B2052CF6DB00BF052C01D05F
:100A000001201CBD0020FCE7A5A5A5A5A5000000B0
:100A100000B587B00121142000F0F8F90420ADF8EA
:100A2000180010208DF81B0003208DF81A0006A96D
:100A30002C48FFF7E5FE4FF480512A48FFF776FF78
:100A40001020ADF8180006A92748FFF7D9FE10209E
:100A5000ADF8180006A92348FFF7D2FE2020ADF814
:100A6000180028208DF81B0006A91F48FFF7C8FEB4
:100A700030211D48FFF758FF10211A48FFF754FF97
:100A800000F03EFA0021194800F0C0FA0020ADF84D
:100A900004004FF48270ADF806000020ADF80800A5
:100AA000ADF80A00ADF80C004FF40070ADF80E0080
:100AB0001820ADF810000020ADF812000720ADF8A6
:100AC000140001A9094800F0BBFA0121074800F011
:100AD0009DFA00200649086001200649C1F89001EE
:100AE00007B000BD00080140001001400030014087
:100AF000900121420000224210B5002011490860F7
:100B0000052211492A2000F0DDF80121212000F002
:100B1000F7F80121222000F0F3F82821252000F029
:100B2000EFF82021312000F0EBF80F21262000F013
:100B3000E7F80F21202000F0E3F801200349C1F875
:100B4000900110BD900121420727000800002142BA
:100B50002DE9F04107460D46164600200A49086077
:100B6000384600F015FA8046002405E0FF2000F02A
:100B70000FFA2855601CC4B2B442F7DB01200249C9
:100B800008604046BDE8F0819001224270B50446FD
:100B9000002007490860204600F0FAF9FF2000F025
:100BA000F7F9054601200349C1F89001284670BDB8
:100BB000900122420000224270B50446102000F04D
:100BC00011FA0720FFF7E2FF05462946272000F02B
:100BD00097F805F0400050B1202221466120FFF730
:100BE000B7FFFF21E22000F08BF8002070BD01204C
:100BF000FCE7000010B500201449086005221449E4
:100C0000302000F05FF8052212492A2000F05AF83F
:100C10000121212000F074F80121222000F070F859
:100C20001A21242000F06CF82821252000F068F813
:100C30000F21262000F064F80E21202000F060F83B
:100C400001200549C1F8900110BD0000900121422A
:100C500002270008072700080000214270B505465A
:100C6000102000F0BFF90020134908602022294617
:100C7000A02000F027F801201049C1F8900100BF22
:100C80000F4800680028FBD10720FFF77FFF0446CC
:100C90002146272000F034F804F0100028B1FF218D
:100CA000E12000F02DF8102070BD04F0200008B104
:100CB0002020F9E7FF20F7E79001214200002142C0
:100CC000140122422DE9F04107460C46154600204A
:100CD0000A490860384600F05BF98046002605E0C6
:100CE00014F8010B00F054F9701CC6B2AE42F7DBE9
:100CF0000120024908604046BDE8F081900122428F
:100D000070B505460C46002007490860284600F0EB
:100D10003FF90646204600F03BF901200349C1F89F
:100D20009001304670BD0000900122420000224236
:100D300070B5002100230F22C47804B3154C246839
:100D400004F4E064C4F5E064210AC1F10403CA407C
:100D5000447804FA03F184781440214309010E4CCD
:100D60000678A155047804F01F050124AC400578ED
:100D70006D11AD0005F1E025C5F8004109E00478EA
:100D800004F01F050124AC40044D0678761145F8A7
:100D9000264070BD0CED00E000E400E080E100E0E2
:100DA00002490143024A1160704700000000FA0541
:100DB0000CED00E001460020034A506820F440405A
:100DC00008435060704700000010024029B1064AF5
:100DD00052690243044B5A6104E0034A5269824358
:100DE000014B5A61704700000010024029B1064AC9
:100DF000D2690243044BDA6104E0034AD2698243B8
:100E0000014BDA61704700000010024029B1064A28
:100E100092690243044B9A6104E0034A9269824357
:100E2000014B9A61704700000010024030B500216C
:100E30000022002400232D4D6D6805F00C0121B126
:100E4000042905D0082923D105E0294D056022E0B9
:100E5000274D05601FE0254D6D6805F47012234D88
:100E60006D6805F48034022505EB92421CB9214DD2
:100E7000554305600BE01D4D6D6805F400351DB14F
:100E80001C4D5543056002E0194D5543056002E0D5
:100E9000174D056000BF00BF144D6D6805F0F001EF
:100EA0000909154D6B5C0568DD4045600F4D6D68A7
:100EB00005F4E061090A104D6B5C4568DD40856012
:100EC0000A4D6D6805F46051C90A0B4D6B5C4568AD
:100ED000DD40C560054D6D6805F44041890B074D47
:100EE0006B5CC568B5FBF3F5056130BD00100240D1
:100EF00000127A0000093D004E0000205E00002034
:100F000000B587B001210420FFF780FF012108030D
:100F1000FFF77CFFE020ADF8180018208DF81B00CB
:100F200003208DF81A0006A91748FFF769FCE02195
:100F30001548FFF7FBFC0020ADF804004FF4827069
:100F4000ADF806000020ADF808000220ADF80A0058
:100F50000120ADF80C004002ADF80E003820ADF8CD
:100F600010000020ADF812000720ADF8140001A910
:100F7000064800F065F80121044800F047F8FF201A
:100F800000F006F807B000BD000801400030014045
:100F900070B50546002405E0601CC4B2C82C01DD14
:100FA000002070BD02210E4800F03CF80028F3D06C
:100FB00029460B4800F042F8002405E0601CC4B24A
:100FC000C82C01DD0020ECE70121054800F02AF8DB
:100FD0000028F3D0024800F02EF8C0B2E1E700008C
:100FE0000030014010B50446074800884FF6C7712D
:100FF00008400549088008460088204308800121F0
:10100000014800F003F810BD0030014021B1028812
:1010100042F04002028004E002884FF6BF731A409B
:10102000028070470246002013890B400BB101205B
:1010300000E0002070470146888970478181704731
:1010400010B50022028802F441520B884C882343D9
:101050008C882343CC8823430C8923434C89234326
:101060008C892343CC8923431A430280838B4FF21C
:10107000FF74234083830B8A038210BD10B500F0F8
:1010800001F810BD0CB500200190009033480068B5
:1010900040F480303149086000BF3048006800F4F7
:1010A000003000900198401C0190009818B90198F8
:1010B000B0F5A06FF1D12948006800F4003010B1FC
:1010C0000120009001E0002000900098012843D109
:1010D0002348006840F01000214908600846006875
:1010E00020F0030008600846006840F00200086035
:1010F0001A484068194948600846406848600846F0
:10110000406840F4806048600846406820F47C10E5
:1011100048600846406840F4E810486008460068A7
:1011200040F08070086000BF0C48006800F000705C
:101130000028F9D00948406820F0030007494860BA
:101140000846406840F00200486000BF034840681D
:1011500000F00C000828F9D10CBD0000001002407E
:1011600000200240042808D14FF0E021096941F035
:1011700004014FF0E022116107E04FF0E02109691E
:1011800021F004014FF0E022116170477047000028
:1011900010B51348006840F0010011490860084686
:1011A0004068104908400E494860084600680E49EA
:1011B00008400B4908600846006820F48020086059
:1011C0000846406820F4FE0048604FF41F00886025
:1011D000FFF754FF4FF000600449086010BD0000A5
:1011E000001002400000FFF8FFFFF6FE08ED00E0EF
:1011F00010B50821304800F083F848B308212E4884
:1012000000F068F82C4800F074F82C4908802C484D
:10121000006888B92A480068401C294908602748A6
:10122000008844F620621044264A1288801A81B24F
:10123000214800F024F90BE00020214908601F48F4
:101240000088204A1288104481B21B4800F017F928
:101250001021194800F054F860B31021164800F02E
:1012600039F8154800F048F8174908801748006811
:1012700088B916480068401C14490860144804885E
:1012800004EBD470104A128802EB600081B20A4865
:1012900000F0F7F80EE000200C4908600C480488C4
:1012A00004EBD470084A128802EB600081B2024855
:1012B00000F0E7F810BD0000000800401C0000200E
:1012C00014000020400000201E0000201800002014
:1012D00042000020CA430282704721B1028842F0D6
:1012E0000102028004E002884FF6FE731A40028079
:1012F00070470146888F70470146B1F8400070473B
:1013000030B50246002000230024158A05EA0103B7
:10131000958905EA010413B10CB1012000E0002019
:1013200030BD1AB183890B43838102E083898B43EB
:101330008381704770B5002400220023058C4FF68E
:10134000FF6635400584028C8388848B4FF68F7549
:101350002C404FF6FC752C400D882C434FF6FF5562
:101360002A400D894FF6FF7606EA05252A434D8867
:1013700006EA05252A43154DA84202D0144DA8427D
:101380001DD14FF2FF752A404D894FF6FF7606EAD0
:1013900005252A434FF6FF352A408D8806EA0525A4
:1013A0002A434EF6FF752B404DF6FF752B408D8975
:1013B00006EA05152B43CD8906EA05152B438380E4
:1013C0008483CD888587028470BD0000002C014095
:1013D000003401400A460021818B4FF6F773194013
:1013E000114381837047000070B500220023002460
:1013F000058C4EF6FF7635400584038C8488828BFD
:1014000048F6FF752A404FF6FF452A400D884FF6F3
:10141000FF7606EA05252A434DF6FF752B400D8918
:1014200006EA05352B434D8806EA05352B430B4D5F
:10143000A84202D00A4DA84208D14BF6FF752C40B5
:101440008D894FF6FF7606EA85152C4384808283CA
:10145000CD88A0F84050038470BD0000002C0140EE
:10146000003401400A460021818B4FF2FF7319407E
:101470004FF6FF7303EA0223194381837047818784
:101480007047A0F840107047002202881D4B984218
:101490000ED01D4B98420BD0B0F1804F08D01B4BA3
:1014A000984205D01A4B984202D01A4B984204D168
:1014B0004FF68F731A404B881A43174B984207D048
:1014C000164B984204D04FF6FF431A40CB881A437C
:1014D00002808B8883850B8803850A4B98420BD04A
:1014E000094B984208D00E4B984205D00D4B9842BC
:1014F00002D00D4B984201D10B7A038601238382DF
:1015000070470000002C01400034014000040040FE
:1015100000080040000C0040001000400014004093
:1015200000400140004401400048014010B540F235
:1015300025511D4800F04AF810B31B4800F002F98D
:10154000C4B21A48008800F40040C8B9174800889F
:1015500000F4804060B10A2C03D0002013490880B9
:1015600020E01248008840F400401049088019E04B
:101570000D2C06D10D48008840F480400B490880AE
:1015800010E00A480088C0F30D0009490C540748D0
:101590000088401C0549088008460088C72801DDEE
:1015A0000020088010BD0000003801404C000020E1
:1015B0008C00002021B1828942F40052828104E033
:1015C00082894DF6FF731A408281704770B50246DA
:1015D000002400230025002040F66A16B14200D105
:1015E00000BFC1F3421501F01F03012606FA03F301
:1015F000012D02D19689334006E0022D02D1168AD0
:10160000334001E0968A33400C12012606FA04F4B6
:101610001688344013B10CB1012000E0002070BDE9
:10162000F0B50346002400260025002040F66A1786
:10163000B94200D100BF1846C1F3421401F01F06A1
:10164000012707FA06F5012C01D10C3004E0022C29
:1016500001D1103000E014301AB107682F43076041
:1016600002E00768AF430760F0BD00002DE9F047D6
:1016700086B005460E460024A24600BFA1460027BC
:10168000B08900B100BF2F462C8A4CF6FF70044091
:10169000F08804432C82AC894EF6F3100440B088E5
:1016A00031890843718908430443AC81AC8A4FF601
:1016B000FF400440B0890443AC8201A8FFF7B6FBA9
:1016C0001F48874202D1DDF810A001E0DDF80CA030
:1016D000A88900F4004040B10AEBCA0000EB0A10F0
:1016E00031684900B0FBF1F807E00AEBCA0000EBF3
:1016F0000A1031688900B0FBF1F86420B8FBF0F003
:1017000004012009642101FB1089A88900F400402C
:1017100040B1322000EBC900B0FBF1F000F007004F
:10172000044308E0322000EB09106421B0FBF1F023
:1017300000F00F0004432C8106B0BDE8F0870000E4
:101740000038014001468888C0F308007047014610
:1017500000BF704710B56FF00400FFF703FD0A48A3
:1017600000680A49B0FBF1F00949087008460078A2
:1017700000EB4001C1EBC0104FF6FF7101EAC00061
:101780000449088010BD00002000002000127A00EB
:1017900044000020460000200146114A12884A43B6
:1017A0004FF0E0235A6100229A611A46126942F012
:1017B00001021A6100BF4FF0E022106900F001023F
:1017C0001AB100F48032002AF5D04FF0E0221269FD
:1017D00022F001024FF0E0231A6100229A61704763
:1017E0004600002000BF054A128802F04002002A8D
:1017F000F9D0C2B2014B1B1D1A807047003801405E
:1018000000BF0024FFF7A6FF4FF4A060FFF7C8FA5F
:10181000FEF700FF4FF4E13000F0AAF9FFF7A8F857
:10182000FFF786F8FFF7F4F800F034F96EA0FEF742
:10183000F3FC05E070A0FEF7EFFCC820FFF7ACFF5B
:10184000FFF7BEF80028F5D16EA0FEF7E5FC70A00A
:10185000FEF7E2FC1FE04FF400517448FFF75BF81D
:1018600050B900BF4FF400517048FFF754F80028FA
:10187000F8D04FF000090FE002216C48FFF74BF859
:1018800048B900BF02216948FFF745F80028F9D0A0
:101890004FF0010900E0DEE700BFB9F1000F4FD1C2
:1018A00063A0FEF7B9FCFFF727F948E06548FFF7AA
:1018B00083F9002843D16348007888283FD16148E4
:1018C000407944283BD15F48B0F801005E49088068
:1018D00008460088A52819DD4FF4FA70FFF75CFF71
:1018E00059490988A1F1A50000F067FA0546574A51
:1018F000574B00F079FA82460022564B00F088F9E7
:10190000074600F02DFA5449088018E04FF4FA70A9
:10191000FFF742FF4C490988C1F1A50000F04DFADC
:1019200007464A4A4A4B00F05FFA05460022494BF7
:1019300000F058FB824600F013FA47490880B5E7EB
:1019400046A0FEF769FCFFF755F94BE04848FEF763
:10195000E9FE48494848006800F092FD06464FF00D
:101960008B4100F097FC054600F056FD3649088093
:1019700040494248006800F083FD06464FF08B4125
:1019800000F088FC054600F047FD3D4908802E48E0
:101990003C4908603A483C4908603A480068007889
:1019A0002849487037480068407888703648006891
:1019B0000078C87034480068407808710846FFF71E
:1019C0004DF920280ED1002407E01E48025D214673
:1019D0002EA0FEF721FC601C84B2062CF5DB08A0CB
:1019E000FEF71AFCB2E70000CFD6D4DABFAACABC11
:1019F0002E2E2E0D0A000000D5FDD4DABCECB2E983
:101A00000D0A0000BCECB2E9CDEAB3C90D0A000032
:101A10004B4559303A52585F4D6F64652C4B4559D0
:101A2000313A54585F4D6F64650D0A000010014053
:101A30004E524632344C30312052585F4D6F6465FF
:101A40000000000000000020060000203D0AD7A38F
:101A5000703D184000709740400000204E524632C2
:101A6000344C30312054585F4D6F646500000000E5
:101A7000640000200000A54334000020380000204E
:101A8000080000200C0000201000002025643A25EA
:101A90006420200000B589B001210420FFF7A6F9D9
:101AA00001210820FFF7B2F91E208DF80000002068
:101AB0008DF801008DF8020001208DF803006846C2
:101AC000FFF736F94FF44070ADF8200018208DF87C
:101AD000230003208DF8220008A92148FEF790FE7C
:101AE0004FF6FF70ADF818004720ADF81400002045
:101AF000ADF81A00ADF8160005A91A48FFF7C4FCA6
:101B00003020ADF804000120ADF80600164800882A
:101B1000ADF80A000220ADF80C0001A91148FFF74A
:101B200009FC00210F48FFF755FC0120ADF8060025
:101B30000E480088ADF80A0001A90A48FFF754FCD6
:101B400000210848FFF78EFC01210648FFF7C5FB7E
:101B5000012218210348FFF7E4FB09B000BD000093
:101B6000000C01400008004040000020420000201E
:101B700010B586B00446012144F20400FFF746F98F
:101B80004FF40070ADF8140003208DF816001820F3
:101B90008DF8170005A91C48FEF732FE4FF480604F
:101BA000ADF8140004208DF8170005A91648FEF7BB
:101BB00027FE25208DF8000003208DF801008DF808
:101BC000020001208DF803006846FFF7B1F8019488
:101BD0000020ADF80800ADF80A00ADF80C00ADF833
:101BE00010000C20ADF80E0001A90848FFF73EFDDB
:101BF000012240F225510548FFF712FD012103485B
:101C0000FFF7D8FC06B010BD0008014000380140C5
:101C100010B591EA030F48BF83F0004300F1F6814D
:101C2000841A71EB030C05D2121943EB0C03001B51
:101C300061EB0C01DFF824E14FEA1154A4EB135CD3
:101C40001EEA430F18BF9EEA445F73D023EA0E03D7
:101C5000DCF1200E21EA045143F4801332D322FA3E
:101C60000CFE10EB0E0023FA0CFE41EB0E01CCF142
:101C7000200E03FA0EFE10EB0E0051F10001B1F53B
:101C8000801FCCF1200E32D201EB045112FA0EF279
:101C9000BDE8104058BF7047401C38BF5FEA4202A1
:101CA00018BF7047002814BF20F0010041F1000167
:101CB0004FEA410313F5001F38BF7047A1F1C0413F
:101CC00000F08AB9012A43EB0302ACF1200CDCF1ED
:101CD0001F0E32BF4FF0000E23FA0CF310EB03007F
:101CE00041EB0451B4EB115FD0D0A1EB045101F5ED
:101CF000801149085FEA300001EB04510ED350F126
:101D0000000038BF12FA0EFE08D1BDE81040C9E746
:101D1000401C38BF5FEA4202CAD1C3E7BDE81040A9
:101D20004FEA410313F5001F38BF7047A1F1C041CE
:101D300000F052B99EEA445F08D011EA5E0FBDE898
:101D4000104004BF01F0004100207047BDE8104082
:101D500070B500F0F3F800BF64FBBE3E0000E0FF8A
:101D60004FEA1153A3F58063D3F11E03A8BFD3F14B
:101D7000200C08DB4FF0004242EAC12252EA5052E6
:101D800032FA03F0704709420BD4102BC4BF002075
:101D9000704703F5787CBCF1FF3F05D04FF0FF3072
:101DA00070474FF00000704770B500F0C7F800BFF3
:101DB0004992248000207047F0E710F0004248BFAD
:101DC0004042B0FA80F310FA03F10AD0C3F11D03C8
:101DD00003F580634FEA415002EB035202EBD1213D
:101DE00070474FF000007047DFF848C170B51CEA3B
:101DF000111E1EBF1CEA13159EEA0C0F95EA0C0F6C
:101E000000F06F8081EA030423EA4C134EEAD47E8B
:101E100021EA4C1141F4801143F48013AE44A1FB3C
:101E2000024CA0FB0365AEF17F7E361955EB0C0525
:101E3000A1FB034C4CF10003A0FB021C16EB0C06AB
:101E4000654153F10003094218BF46F0010613F43F
:101E5000007F0BD14FEA03314FEA0530340341EAEA
:101E6000155140EA16506FF003020AE04FEAC32111
:101E70004FEAC520F40241EA555140EA56506FF04E
:101E8000020202EB2E4201EB025585EACE710AD026
:101E90005FEA440C18BF24F0004450F1000041F107
:101EA000000120EAD47040F2FE7C624500D270BD91
:101EB000A84214BF4FF080444FF04044002E08BFAA
:101EC0000024BEF1806FA8BFA1F1C041BDE8704001
:101ED00080F282804FF0000001F1C04101F000412A
:101EE00070479EEA0C0F0CEA131518BF95EA0C0F09
:101EF00006D04FF0000081EA030E0EF0004170BDE5
:101F000000F01CF88900013E00F007B800F009B8A5
:101F10004FEA430C5FEA5C5C08D081EA030100F001
:101F20005BB84FEA410C5FEA5C5CF6D14FF0000011
:101F3000014970470000FF070000F87F0EF1020E14
:101F40002EF0030E5EF8046B364205D4012A43EBF3
:101F5000030515F5001F12D8012841EB010C1CF5F3
:101F6000001F0CD80ED14FEAD17C15F5001F0CEBE9
:101F70004C0C0CF1020C08BF4CEBD37C04E04FF08E
:101F8000080C01E04FEAD37C0CEB4C0526FA05F671
:101F900006F00706B6F1040C06D20EEB860CBDE87F
:101FA00070404CF0010C6047DFE80CF0090B0202B6
:101FB0004FF000414FF00000A1F5002170BD19461F
:101FC0001046012851EB010418BFD4F5001484BF5A
:101FD000002001F0004170BD0808A0F500114FEA93
:101FE0003101704791EA030F10B581F000413FF5D0
:101FF00017AE83F0004300F009B8000010B591EA75
:10200000030F48BF83F000433FF50AAE841A71EB1B
:10201000030C07D212198CF0004C43EB0C03001B8D
:1020200061EB0C01DFF8A4E14FEA1154A4EB135C5F
:102030001EEA430F18BF9EEA445F00F0B08023EA17
:102040006E03524221EA0451C3EB6E0338BF5B1E9C
:10205000DCF1200E25D322FA0CFE10EB0E0043FA21
:102060000CFE41EB0E01CCF1200E03FA0EFE10EB3C
:102070000E0051F10001CCF1200E29D412FA0EF21B
:1020800001EB0451BDE8104058BF7047401C1CBF15
:10209000B2F1004F704700280CBF491C20F001002E
:1020A000704712EB020E43EB030218BF4FF0010E14
:1020B0004EEA4202ACF1200CDCF11E0E54D943FA78
:1020C0000CFE10EB0E0051F1FF31CCF11E0ED5D5F8
:1020D0000EF1010E12FA0EFE404141EB010101EB3F
:1020E000445C5FEA5C5C10D910EBDE7001EB0451DC
:1020F00038BFBEF1004FBDE8104018BF7047002840
:102100000CBF491C20F00100704730D24FEAD42C9C
:1021100011F5001124F400641BD0B1FA81F20B3ADE
:10212000A41AA41ED2F12003914030FA03F31943FC
:10213000904001EBCC71002C01EB0451BDE8104044
:10214000A8BF704701F1C0414FF0000001F000410D
:102150007047B0FA80F310FA03F100D110BDE41A11
:10216000173C4805C90AE4E701EB045110BD4910CA
:1021700001EB0451BDE810404FEA300002E04FF09F
:10218000000170474A0008BF0042F8D0B2F5001FB6
:1021900028BF704701F000414FF0000070479EEAF1
:1021A000445F07D011EA5E0FBDE8104004BF002174
:1021B00000207047BDE8104070B5FFF7BFFE00BFBC
:1021C00040DFF63E83F00041104670470000E0FF1C
:1021D00090EA010F48BF81F0004100F12482421AC9
:1021E0003CBF801A89184FEAD0524FF07F4C1CEA4E
:1021F000410FA2EBD15318BF9CEA026F00F03B8065
:102200004FF0004C4CEA00204CEA012121FA03FC7B
:1022100010EB0C0C1ED202F1FF325FEA1C2040EBE7
:10222000C25038BF70471CF07F0F4FEA400C18BFF8
:10223000BCF17F4F38BF7047C3F12003994008BFFE
:1022400020F00100BCF17F4F38BF7047A0F1C040C3
:1022500000F0DDB94FEA3C00000A40EBC25028BF55
:102260001CF0FF0F4FEA400CE6D018BFBCF17F4FC7
:1022700038BF7047EAE79CEA026F05D010EA5C0FAE
:1022800008BF00F00040704710B500F07AF900BFB9
:1022900064FBBE3E4FF47F0C1CEAD0121EBF1CEA4A
:1022A000D11392EA0C0F93EA0C0F00F0858090EAAC
:1022B000010F48BF42F4807240F4000C41F400006A
:1022C0002CF07F4120F07F4000B58142A2EB030259
:1022D0000FF2081CACEB504EC0F100009EF800E07D
:1022E0004FEA4E0E00FB0EFC38BF49004FEA2C1C93
:1022F00002F5FA020CFB0EF34FEACE1E4FEA112C48
:102300004FEAC1210EEB635E42EB22420EFB0CFC56
:102310004FEA1C5300FB03114FEA112C4FEA013125
:102320000EFB0CFC4FEADC4C00FB0C11C14228BF39
:1023300009184CEB03335DF804EB10EB410143EB60
:10234000C250B2F57C0F38BF704729D512F0F00F9C
:102350001CBF00F1C04000F0004070470081828344
:102360008485868788898B8C8D8E8F9192939596A4
:1023700097999A9C9D9FA0A2A3A5A7A8AAACAEB02E
:10238000B2B3B5B7B9BCBEC0C2C5C7C9CCCED1D433
:10239000D7D9DCDFE2E6E9ECF0F3F7FAFE00000063
:1023A0004FEA400C0CF1807CBCF17E4F28BF704797
:1023B000B0F1C04000F02BB990EA010F0CEAD11344
:1023C00048BF42F48072624538BF634507D213F4B8
:1023D0007F0F16D080EA010000F00040704710B572
:1023E00000F0CFF8097EFC3E00F005B880EA01005D
:1023F00000F00040704780EA010000F0004000F06B
:1024000006B912F47F0F04BF0248704780EA01004A
:1024100000F0FDB80000C07FC10DD1F19E0206DBC7
:102420004FEA002343F0004323FA02F070470042D2
:1024300007D54FEA4001B1F1FE4F02D24FF0000044
:10244000704710B500F09DF8499224800020704735
:102450006FEA200070470000B0FA80F310FA03F230
:10246000C3F19D030AD0D90501EB1220530638BFF2
:10247000704700F1010008BF20F001007047000024
:102480004FF47F0C1CEAD0121EBF1CEAD11392EA53
:102490000C0F93EA0C0F00F0478090EA010F48BF41
:1024A00042F480724FF0004C4CEA00204CEA0121CB
:1024B00002EB0302A0FB0113A2F50002002918BFE2
:1024C00043F001035B0028BF4FEA330342EB224293
:1024D0005FEA132C4CEBC2502EBFBCEB436FB2F53E
:1024E0007C0F70474FEA036CBCF1004F08BF20F02F
:1024F0000100B2F57C0F38BF70470BD582F0FF02A8
:1025000012F5803FC8BF704700F1C040D8BF00F04F
:102510000040704700F5000C5FEA4C0C48BF704764
:10252000B0F1C04000F073B890EA010F0CEAD1138B
:1025300048BF42F48072624538BF634504D280EAE6
:10254000010000F00040704710B500F01AF800BF1D
:102550008900013E00F007B800F009B85FEA410CBD
:102560005FEA1C6C08D080EA010000F050B85FEA16
:10257000400C5FEA1C6CF6D14FF00040A0F58000E3
:1025800070470EF1020E2EF0030E5EF8044B24424B
:1025900004D44FEA4102B2F17F4F11D84FEA400311
:1025A000B3F17F4F0CD80ED14FEAD07CB2F17F4F00
:1025B0000CEB4C0C0CF1020C08BF4CEBD17C04E092
:1025C0004FF0080C01E04FEAD17C0CEB4C0324FAED
:1025D00003F404F00704B4F1040C06D20EEB840CEF
:1025E000BDE810404CF0010C6047DFE80CF0070834
:1025F00002024FF00040A0F5800010BD08464200E6
:1026000018BFD2F1807288BF00F0004010BDFF21DA
:1026100041EAD050C005704790EA010F48BF81F0F1
:1026200000413FF5DCAD421A04D882F00042A0EB35
:10263000020011444FEAD0524FF07F4C1CEA410F88
:10264000A2EBD15318BF9CEA026F4AD04FF0004C66
:102650004CEA00204CEA012121FA03FCB0EB0C0CFF
:102660000FD412F0FE0F36D05FEA4C001DD50012D9
:1026700040EBC25038BF70471CF03F0F18BF704787
:102680000BE0A2F101025FEA1C2040EBC25038BF10
:1026900070471CF07F0F18BF7047C3F120039940AB
:1026A00014BF401E20F00100704780084FEA12233B
:1026B00008BF7047B0FA80FCA2EB0C02CCF1280CEA
:1026C00060FA0CF093EA122F04BF00EBC25070477F
:1026D0004FEAC3707047130A5FEADC1008BF704707
:1026E000F6E79CEA026F04D010EA5C0F08BF0020F6
:1026F000704710B5FFF745FF40DFF63E81F0004020
:102700007047344310100134431010012C27000887
:1027100000000020640000006C0100089027000801
:10272000640000205407000088010008886162618D
:1027300062440000000000000000000000000000F3
:1027400000000000000000000000000000A24A0499
:102750000000000000000000010203040607080951
:10276000000000000000000000000000DC05E8039D
:102770000000000000000000000000000000010256
:102780000304010203040607080902040608000006
:04000005080001D519
:00000001FF
