:020000040800F2
:100000001802002001010008DD030008DF030008DA
:10001000E3030008E7030008EB030008000000000A
:10002000000000000000000000000000EF030008D6
:10003000F103000800000000F3030008F5030008C6
:100040001701000817010008170100081701000830
:100050001701000817010008170100081701000820
:100060001701000817010008170100081701000810
:100070001701000817010008170100081701000800
:1000800017010008170100081701000817010008F0
:1000900017010008170100081701000817010008E0
:1000A00017010008170100081701000817010008D0
:1000B00017010008170100081701000817010008C0
:1000C00017010008170100081701000817010008B0
:1000D00017010008170100081701000817010008A0
:1000E000170100081701000817010008DFF80CD0FD
:1000F00000F082FE00480047DF01000818020020DF
:1001000005480047FEE7FEE7FEE7FEE7FEE7FEE7FD
:10011000FEE7FEE7FEE7FEE7ED00000801B502E0BE
:100120000098401E009000980028F9D108BD70B5D5
:10013000054600241BE005FA04F000F0800028B119
:100140004FF48061A24800F0B2FA04E04FF48061FD
:100150009F4800F0AEFA4FF480519D4800F0A9FA94
:100160004FF480519A4800F0A2FA601CC4B2082CE7
:10017000E1DB4FF40061964800F09BFA4FF4006118
:10018000934800F094FA70BD70B50546002419E05C
:1001900005FA04F000F0800020B120218D4800F025
:1001A00086FA03E020218B4800F083FA4FF40071B7
:1001B000884800F07EFA4FF40071864800F077FA24
:1001C000601CC4B2082CE3DB4FF48071814800F05E
:1001D00070FA4FF480717F4800F069FA70BD00F04A
:1001E000E1FD00F009F974E0FF20FFF7CDFF7A4848
:1001F000FFF794FF0020FFF7C7FF7748FFF78EFF58
:100200000120FFF7C1FF7448FFF788FF0220FFF7C6
:10021000BBFF7148FFF782FF0420FFF7B5FF6E4870
:10022000FFF77CFF0820FFF7AFFF6B48FFF776FF73
:100230001020FFF7A9FF6848FFF770FF2020FFF7A5
:10024000A3FF6548FFF76AFF4020FFF79DFF624864
:10025000FFF764FF8020FFF797FF5F48FFF75EFF1F
:10026000FF20FFF764FF0020FFF761FF5A48FFF708
:1002700055FF0120FFF75BFF5748FFF74FFF0220B4
:10028000FFF755FF5448FFF749FF0420FFF74FFFE2
:100290005148FFF743FF0820FFF749FF4E48FFF79B
:1002A0003DFF1020FFF743FF4B48FFF737FF2020AB
:1002B000FFF73DFF4848FFF731FF4020FFF737FFCA
:1002C0004548FFF72BFF8020FFF731FF4248FFF73B
:1002D00025FF89E770B50546002417E005FA04F00C
:1002E00000F0800020B10221394800F0E0F903E07D
:1002F0000221374800F0DDF90121354800F0D9F935
:100300000121334800F0D3F9601CC4B2082CE5DBAE
:1003100004212F4800F0CDF904212D4800F0C7F941
:1003200070BD70B5054600241BE005FA04F000F02E
:10033000800028B14FF40051254800F0B8F904E0DE
:100340004FF40051224800F0B4F94FF40041204826
:1003500000F0AFF94FF400411D4800F0A8F9601C0F
:10036000C4B2082CE1DB4FF48041194800F0A1F938
:100370004FF48041164800F09AF970BD70B50546FB
:10038000002419E005FA04F000F0800028B14FF4D1
:1003900080710F4800F08BF904E04FF480710C4835
:1003A00000F087F940210A4800F083F9402108480D
:1003B00000F07DF9601CC4B2082CE3DB8021044806
:1003C00000F077F98021024800F073F970BD000059
:1003D00000100140000C0140FFFF3F00704700BFCC
:1003E000FEE700BFFEE700BFFEE700BFFEE7704785
:1003F000704770477047000008B50121112000F0D8
:1004000045FB4FF6C050ADF8000002208DF8020009
:1004100010208DF803006946174800F09BF8012072
:1004200000F0F9FB002000F09EFA002000F09DFB98
:10043000002000F0F0FB0121084600F027FB01211D
:100440000E4800F058F94FF44870ADF80000102045
:100450008DF8030003208DF802006946084800F07B
:1004600079F84FF44871064800F023F94FF6C0516F
:10047000014800F01EF908BD0010014000023000E4
:10048000000C014010B50446C649601A8C422FD0BA
:1004900009DCC548204480B1B0F5806F16D0B0F5B6
:1004A000006F4AD11BE0B0F5806F2AD0B0F5006F25
:1004B00030D0B0F5406F40D135E00121042000F08C
:1004C000FFFA0021042000F0FBFA37E001210820A8
:1004D00000F0F6FA0021082000F0F2FA2EE00121E7
:1004E000102000F0EDFA0021102000F0E9FA25E0DC
:1004F0000121202000F0E4FA0021202000F0E0FAA1
:100500001CE00121402000F0DBFA0021402000F037
:10051000D7FA13E00121802000F0D2FA00218020D8
:1005200000F0CEFA0AE00121080200F0C9FA002129
:100530004FF4807000F0C4FA00E000BF00BF10BDAF
:1005400010B50121084600F0BBFA0021012000F09F
:10055000B7FA10BD2DE9F041024600250026002023
:1005600000230024002791F803C00CF00F0591F838
:1005700003C00CF0100CBCF1000F03D091F802C0C6
:100580004CEA050591F800C0BCF1000F31D01468A9
:1005900000202BE04FF0010C0CFA00F3B1F800C082
:1005A0000CEA03069E4220D183004FF00F0C0CFA98
:1005B00003F7BC4305FA03FC4CEA040491F803C0BA
:1005C000BCF1280F06D14FF0010C0CFA00FCC2F868
:1005D00014C00AE091F803C0BCF1480F05D14FF0F8
:1005E000010C0CFA00FCC2F810C0401C0828D1D342
:1005F0001460B1F800C0BCF1FF0F34DD5468002076
:100600002EE000F1080C4FF0010808FA0CF3B1F8E5
:1006100000C00CEA03069E4221D183004FF00F0C6C
:100620000CFA03F7BC4305FA03FC4CEA040491F806
:1006300003C0BCF1280F05D100F1080C08FA0CF832
:10064000C2F8148091F803C0BCF1480F07D100F143
:10065000080C4FF0010808FA0CF8C2F81080401C92
:100660000828CED35460BDE8F0814FF6FF710180B9
:10067000022181700421C1707047024600209368F6
:100680000B400BB1012000E0002070470146886854
:1006900080B2704702460020D3680B400BB10120A6
:1006A00000E0002070470146C86880B270470161D1
:1006B0007047416170470AB1016100E041617047D4
:1006C000C16070474FF480320A4382618161826168
:1006D00082698269704702460020344B18684FF6E1
:1006E0008073184040EA02100843304B186070478E
:1006F0002F49C8617047F0B50A4600230024002145
:1007000000252A4E7168C0F3034583B200F44016F9
:10071000B6F5401F08D121F07061244E766826F0AE
:100720007066224F7E6012E000F48016B6F5801FDE
:1007300006D1032606FA05F4A14341F0706106E0F4
:10074000460D360103FA06F6B14341F0706122B15D
:10075000460D360103FA06F63143144E7160F0BDC2
:1007600030B500228B071C0F0F2303FA04F20F4B46
:1007700008338C1053F8243093430C4C08348D10FC
:1007800044F8253023468C1053F824308C07240F6E
:1007900000FA04F42343054C08348D1044F8253046
:1007A00030BD00000014014000F8FEBF0000014011
:1007B00000002042DE48006840F00100DC4908608B
:1007C00008464068DB490840D94948600846006847
:1007D000D9490840D64908600846006820F48020BE
:1007E00008600846406820F4FE00486000208860E9
:1007F0007047CF49096821F48031CD4A1160114614
:10080000096821F480211160B0F5803F03D0B0F574
:10081000802F0ED106E0C649096841F48031C44AF0
:10082000116007E0C249096841F4A021C04A116083
:1008300000E000BF00BF704710B501460022002352
:1008400000204A11012A02D1B94C236806E0022A8D
:1008500002D1B74C236A01E0B54C636A01F01F0274
:10086000012494401C400CB1012000E0002010BD88
:1008700038B5002000900024002500BF3120FFF78C
:10088000DBFF05460098401C00901DB90098B0F5AC
:10089000A06FF3D13120FFF7CFFF08B1012400E0B2
:1008A0000024204638BD01460020A14A106820F0EF
:1008B000F80040EAC10010607047A0490860704726
:1008C000024600209A4B586820F47C1042EA01034B
:1008D0001843974B5860704798490866704701461F
:1008E0000020934A506820F003000843506070478E
:1008F0008F48406800F00C007047014600208C4A89
:10090000506820F0F0000843506070470146002016
:10091000874A506820F4E060084350607047014601
:100920000020834A506820F4605040EAC1005060C3
:10093000704729B17E4A527A02437D4B5A7204E0D5
:100940007B4A527A82437A4B5A7270477B49D8313C
:100950000860704701460020754A506820F4404006
:100960000843506070470021714A20321170704A6C
:1009700082F82010012802D004280AD104E00121C5
:100980006B4A2032117005E00521694A203211704E
:1009900000E000BF00BF70476949086070476449C4
:1009A000096A0143624A1162704765494439086027
:1009B000704730B500210022002400235C4D6D6893
:1009C00005F00C0121B1042905D0082923D105E047
:1009D0005C4D056022E05B4D05601FE0544D6D6885
:1009E00005F47012022505EB9242514D6D6805F435
:1009F00080341CB9544D554305600BE04C4D6D6877
:100A000005F400351DB1504D5543056002E04D4DD4
:100A10005543056002E04B4D056000BF00BF444DEB
:100A20006D6805F0F0010909484D6B5C0568DD4013
:100A300045603F4D6D6805F4E061090A434D6B5C0C
:100A40004568DD4085603A4D6D6805F46051C90A1E
:100A50003E4D6B5C4568DD40C560354D6D6805F405
:100A60004041890B3A4D6B5CC568B5FBF3F50561F8
:100A700030BD29B12E4A526902432D4B5A6104E020
:100A80002B4A526982432A4B5A61704729B1284A3E
:100A900092690243264B9A6104E0254A9269824397
:100AA000234B9A61704729B1214AD2690243204BF6
:100AB000DA6104E01E4AD26982431D4BDA61704755
:100AC00029B11B4AD2680243194BDA6004E0184A84
:100AD000D2688243164BDA60704729B1144A126912
:100AE0000243134B1A6104E0114A12698243104B0E
:100AF0001A61704712494039086070470F49C8644D
:100B000070470B49C87170470948406A40F08070CF
:100B100007494862704701460020054A92680A402A
:100B20000AB1012000E00020704701498872704737
:100B3000001002400000FFF8FFFFF6FE00004242F6
:100B40008004424200127A0000093D0000000020AB
:100B50001000002010B50120FFF7CCFF0020FFF7A8
:100B6000C9FF10BD2349086070472249091F08606A
:100B700070472049843108607047014600201E4AB2
:100B800010884FF67F42104008431B4A1080704780
:100B900001460020184A10884FF680721040084322
:100BA000154A10807047154A0244A2F8001C70478D
:100BB000014612480844B0F8000C70470D489C30BC
:100BC0000068C0B270470C480830008840F001004F
:100BD00009490831088070470648A0300068C0B253
:100BE000704705480830008840F00200024908318B
:100BF0000880704704860D422C6C00400060004065
:100C000010B501210807FFF768FF00214FF0805061
:100C1000FFF763FF10BD2749086270472549086147
:100C2000704701460020244A106820F0E000084385
:100C3000106070471F49A0310860704710B5024628
:100C400000201D4B186820F00300104318601B4B58
:100C50001B6843F00403194C2360012901D130BF04
:100C600000E020BF10BD1448006840F004001249A5
:100C700008600846006840F0020008600F480068FD
:100C800040F004000D49086000BF00BF30BF70474E
:100C900001460020084A52680A400AB1012000E0DB
:100CA000002070470449096841EA8001024A116046
:100CB0007047000000000E420070004010ED00E0A0
:100CC0000CB50020019000904748006840F4803047
:100CD0004549086000BF4448006800F400300090B7
:100CE0000198401C0190009818B90198B0F5A06FC8
:100CF000F1D13D48006800F4003010B101200090AF
:100D000001E0002000900098012844D13748006895
:100D100040F01000354908600846006820F00300E4
:100D200008600846006840F0020008602E484068ED
:100D30002D4948600846406848600846406840F4CD
:100D4000806048600846406820F47C10486008468F
:100D5000406840F4E81048600846006840F0807041
:100D6000086000BF2048006800F000700028F9D03B
:100D70001D48406820F003001B4948600846406851
:100D800040F00200486000BF1748406800F00C00C7
:100D90000828F9D101E000BFFEE70CBD10B5FFF750
:100DA0008FFF10BD10B51048006840F001000E49DB
:100DB0000860084640680E4908400B4948600846EC
:100DC00000680C490840084908600846006820F49B
:100DD000802008600846406820F4FE00486000203B
:100DE0008860FFF7DBFF10BD0010024000200240CA
:100DF0000000FFF8FFFFF6FE064C074D06E0E06836
:100E000040F0010394E8070098471034AC42F6D351
:100E1000FFF770F93C0E00085C0E000802E008C8FD
:100E2000121F08C1002AFAD170477047002001E064
:100E300001C1121F002AFBD1704700005C0E0008A0
:100E400000000020140000001C0E0008700E0008B6
:100E500014000020040200002C0E00080000000016
:100E6000010203040102030406070809020406083C
:04000005080000ED02
:00000001FF
