:020000040800F2
:1000000030040020450100080B0500080305000826
:1000100007050008E7030008490900080000000080
:1000200000000000000000000000000005060008BD
:10003000EB030008000000000D0500081907000888
:100040005F0100085F0100085F0100085F01000810
:100050005F0100085F0100085F0100085F01000800
:100060005F0100085F0100085F0100085F010008F0
:100070005F0100085F0100085F0100085F010008E0
:100080005F0100085F0100085F0100085F010008D0
:100090005F0100085F0100085F0100085F010008C0
:1000A0005F0100085F0100085F0100085F010008B0
:1000B0005F0100085F0100085F0100085F010008A0
:1000C0005F0100085F0100085F0100085F01000890
:1000D0005F0100085F0100085F0100085F01000880
:1000E0005F0100085F0100085F0100085F01000870
:1000F0005F0100085F0100085F0100085F01000860
:100100005F0100085F0100085F0100085F0100084F
:100110005F0100085F0100085F0100085F0100083F
:100120005F0100085F0100085F0100085F0100082F
:10013000DFF80CD000F02EF800480047950B0008BF
:10014000300400200648804706480047FEE7FEE7E7
:10015000FEE7FEE7FEE7FEE7FEE7FEE7FEE7FEE777
:100160001D0700083101000830B50B46014600208C
:100170002022012409E021FA02F59D4205D303FA69
:1001800002F5491B04FA02F52844151EA2F10102EA
:10019000F1DC30BD064C074D06E0E06840F001039D
:1001A00094E8070098471034AC42F6D3FFF7C4FF39
:1001B000F40B0008140C000800B587B0012148F2C8
:1001C000800000F0A5F94FF48070ADF81800002011
:1001D0008DF81B0006A91F4800F008F900200190C7
:1001E00001208DF808008DF809004FF4602003907D
:1001F0000020049001208DF8140001A9164800F099
:1002000059F801224FF40871134800F046F807230B
:1002100001220621104800F075F801210E4800F077
:100220001DF80D4800F0CAF800BF0B4800F02BF88D
:100230000028FAD1084800F0D1F800BF064800F0C5
:1002400018F80028FAD10121034800F0BCF807B0E3
:1002500000BD0000001C0140003C014021B182684B
:1002600042F00102826003E0826822F001028260B3
:100270007047014600208A6802F004020AB101209A
:1002800000E000207047014600208A6802F0080262
:100290000AB1012000E00020704710B50023CBB266
:1002A0001AB144681C43446002E044689C434460C3
:1002B00010BD000030B502460020002350680F4CEE
:1002C00020400D790C6844EA052420435060906872
:1002D0000B4C2040D1E902542C434D7944EA4504AB
:1002E00020439060D06A20F470000C7C641EE4B25D
:1002F000234340EA0350D06230BD0000FFFEF0FF10
:10030000FDF7F1FFF0B504460D4600200021092D50
:1003100011DDE068A5F10A0606EB4607072606FA96
:1003200007F18843A5F10A0606EB460603FA06F133
:100330000843E0600CE0206905EB4507072606FA54
:1003400007F1884305EB450603FA06F108432061EF
:10035000072A0FDA606B561E06EB86071F2606FA81
:1003600007F18843561E06EB860605FA06F1084398
:10037000606322E00D2A0FDA206BD61F06EB86079A
:100380001F2606FA07F18843D61F06EB860605FAF4
:1003900006F10843206310E0E06AA2F10D0606EBC7
:1003A00086071F2606FA07F18843A2F10D0606EB21
:1003B000860605FA06F10843E062F0BD816841F067
:1003C00008018160704721B1826842F4A002826016
:1003D00003E0826822F4A00282607047816841F0E5
:1003E00004018160704700BFFEE770472DE9F041CE
:1003F000024600250026002000230024002791F853
:1004000003C00CF00F0591F803C00CF0100CBCF108
:10041000000F03D091F802C04CEA050591F800C026
:10042000BCF1000F31D0146800202BE04FF0010C1C
:100430000CFA00F3B1F800C00CEA03069E4220D18A
:1004400083004FF00F0C0CFA03F7BC4305FA03FCD2
:100450004CEA040491F803C0BCF1280F06D14FF018
:10046000010C0CFA00FCC2F814C00AE091F803C0B9
:10047000BCF1480F05D14FF0010C0CFA00FCC2F89A
:1004800010C0401C0828D1D31460B1F800C0BCF1E2
:10049000FF0F34DD546800202EE000F1080C4FF00F
:1004A000010808FA0CF3B1F800C00CEA03069E42FA
:1004B00021D183004FF00F0C0CFA03F7BC4305FA6F
:1004C00003FC4CEA040491F803C0BCF1280F05D1E9
:1004D00000F1080C08FA0CF8C2F8148091F803C077
:1004E000BCF1480F07D100F1080C4FF0010808FAE1
:1004F0000CF8C2F81080401C0828CED35460BDE828
:10050000F08100BFFEE700BFFEE7704770470000C4
:1005100029B1064A92690243044B9A6104E0034AF6
:1005200092698243014B9A617047000000100240BB
:1005300030B500210022002400232D4D6D6805F008
:100540000C0121B1042905D0082923D105E0294D4A
:10055000056022E0274D05601FE0254D6D6805F41C
:100560007012234D6D6805F48034022505EB92422C
:100570001CB9214D554305600BE01D4D6D6805F418
:1005800000351DB11C4D5543056002E0194D554322
:10059000056002E0174D056000BF00BF144D6D6897
:1005A00005F0F0010909154D6B5C0568DD404560FB
:1005B0000F4D6D6805F4E061090A104D6B5C4568EC
:1005C000DD4085600A4D6D6805F46051C90A0B4D28
:1005D0006B5C4568DD40C560054D6D6805F44041C4
:1005E000890B074D6B5CC568B5FBF3F5056130BD44
:1005F0000010024000127A0000093D00180000209F
:1006000028000020704710B500F002F810BD00006F
:100610000CB50020019000903348006840F4803011
:100620003149086000BF3048006800F40030009095
:100630000198401C0190009818B90198B0F5A06F7E
:10064000F1D12948006800F4003010B10120009079
:1006500001E0002000900098012843D12348006861
:1006600040F01000214908600846006820F00300AF
:1006700008600846006840F0020008601A484068B8
:10068000194948600846406848600846406840F498
:10069000806048600846406820F47C104860084646
:1006A000406840F4E81048600846006840F08070F8
:1006B000086000BF0C48006800F000700028F9D006
:1006C0000948406820F00300074948600846406830
:1006D00040F00200486000BF0348406800F00C0092
:1006E0000828F9D10CBD0000001002400020024093
:1006F000042808D14FF0E021096941F004014FF0CE
:10070000E022116107E04FF0E021096921F00401C6
:100710004FF0E022116170477047000010B5134898
:10072000006840F00100114908600846406810491F
:1007300008400E494860084600680E4908400B49C9
:1007400008600846006820F4802008600846406879
:1007500020F4FE0048604FF41F008860FFF753FF4D
:100760004FF000600449086010BD00000010024016
:100770000000FFF8FFFFF6FE08ED00E000B585B0D1
:10078000012144F20400FFF7C3FE4FF40070ADF8FE
:10079000100018208DF8130003208DF8120004A912
:1007A0001648FFF723FE4FF48060ADF810000420D8
:1007B0008DF8130004A91148FFF718FE4FF4E1303B
:1007C00000900020ADF80400ADF80600ADF8080078
:1007D000ADF80C000C20ADF80A006946084800F09E
:1007E00043F8012240F22551054800F017F8012195
:1007F000034800F007F805B000BD00000008014004
:100800000038014021B1828942F40052828104E023
:1008100082894DF6FF731A4082817047F0B5034616
:10082000002400260025002040F66A17B94200D1B6
:1008300000BF1846C1F3421401F01F06012707FA52
:1008400006F5012C01D10C3004E0022C01D110304E
:1008500000E014301AB107682F43076002E0076810
:10086000AF430760F0BD00002DE9F04786B00546B4
:100870000E460024A24600BFA1460027B08900B161
:1008800000BF2F462C8A4CF6FF700440F0880443CA
:100890002C82AC894EF6F3100440B08831890843AD
:1008A000718908430443AC81AC8A4FF6FF40044091
:1008B000B0890443AC8201A8FFF73AFE1F48874283
:1008C00002D1DDF810A001E0DDF80CA0A88900F449
:1008D000004040B10AEBCA0000EB0A103168490041
:1008E000B0FBF1F807E00AEBCA0000EB0A10316830
:1008F0008900B0FBF1F86420B8FBF0F00401200996
:10090000642101FB1089A88900F4004040B1322025
:1009100000EBC900B0FBF1F000F00700044308E071
:10092000322000EB09106421B0FBF1F000F00F0061
:1009300004432C8106B0BDE8F08700000038014078
:10094000C1F308028280704700BFFEE70FB4054B79
:1009500010B503A9044A029800F018F810BC5DF81D
:1009600014FB0000710B00082C00002002E008C8F6
:10097000121F08C1002AFAD170477047002001E019
:1009800001C1121F002AFBD1704700002DE9FF4F63
:1009900089B09B460446002506E025280BD05A4620
:1009A0000B999047641C6D1C20780028F5D10DB080
:1009B0002846BDE8F08F0027B8460122474900E0ED
:1009C000074314F8013F203B02FA03F00842F7D135
:1009D00020782E2819D114F8010F47F004072A288F
:1009E0000ED06FF02F022078A0F1300109290CD829
:1009F00008EB880102EB410100EB0108641CF2E7FF
:100A00000A98641C50F8048B0A9020780028CED0F5
:100A1000642808D0692806D075281ED05A460B993C
:100A200090476D1C58E00A994FF00A0901C90A91D4
:100A3000002802DA40422D2102E0390504D52B219D
:100A40008DF82010012103E0F90704D02021F7E7F9
:100A50008A4608AE0DE00021FAE70A994FF00A092C
:100A600001C90A91F7E74946FFF77EFB303106F8E6
:100A7000011D0028F7D1ADEB060000F12009780731
:100A800001D44FF00108C84502DDA8EB090000E0E1
:100A900000208046002706E008A85A46C05D0B9952
:100AA00090476D1C7F1C5745F6DB04E030205A460A
:100AB0000B9990476D1CB8F10001A8F10108F5DC15
:100AC00005E016F8010B5A460B9990476D1CB9F1D9
:100AD0000001A9F10109F4DC641C65E709280100A3
:100AE00010B56FF00400FFF703FE0A4800680A49DA
:100AF000B0FBF1F0094908700846007800EB4001AE
:100B0000C1EBC0104FF6FF7101EAC0000449088034
:100B100010BD00000000002000127A001400002028
:100B2000160000200146114A12884A434FF0E02384
:100B30005A6100229A611A46126942F001021A6152
:100B400000BF4FF0E022106900F001021AB100F47A
:100B50008032002AF5D04FF0E022126922F0010223
:100B60004FF0E0231A6100229A61704716000020BE
:100B700070B504460D46E1B20548FFF7E1FE00BF3F
:100B80000348008800F080000028F9D0204670BD9E
:100B900000380140FFF7A4FFFFF7F0FDFFF70CFB63
:100BA00020E0002605E010480568601984B2701C3A
:100BB00086B20A2EF7DB0A2094FBF0F084B2B4F57B
:100BC0007A6F01DD4FF47A64282094FBF0F0C0F1D5
:100BD000640084B2214605A0FFF7B8FE4FF4FA7016
:100BE000FFF7A0FFDDE700004C3C014025640D0A43
:100BF00000000000140C000800000020300000007D
:100C00006C090008440C00083000002000040000BB
:100C10007C09000800A24A04000000000000000057
:100C2000010203040607080900000000000000009C
:100C3000010203040102030406070809020406086E
:040C400000000000B0
:0400000508000145A9
:00000001FF
