:020000040800F2
:1000000030040020450100084103000839030008BE
:100010003D030008B90100087D070008000000004A
:10002000000000000000000000000000390400088B
:10003000BD01000800000000430300084D05000852
:100040005F0100085F0100085F0100085F01000810
:100050005F0100085F0100085F0100085F01000800
:100060005F0100085F0100085F0100085F010008F0
:100070005F0100085F0100085F0100085F010008E0
:100080005F0100085F0100085F0100085F010008D0
:100090005F0100085F0100085F0100085F010008C0
:1000A0005F0100085F0100085F0100085F010008B0
:1000B0005F0100085F0100085F0100085F010008A0
:1000C0005F0100085F0100085F0100085F01000890
:1000D0005F0100085F0100085F0100085F01000880
:1000E0005F0100085F0100085F0100085F01000870
:1000F0005F0100085F0100085F0100085F01000860
:100100005F0100085F0100085F0100085F0100084F
:100110005F0100085F0100085F0100085F0100083F
:100120005F0100085F0100085F0100085F0100082F
:10013000DFF80CD000F02EF8004800470D0B000847
:10014000300400200648804706480047FEE7FEE7E7
:10015000FEE7FEE7FEE7FEE7FEE7FEE7FEE7FEE777
:10016000510500083101000830B50B46014600205A
:100170002022012409E021FA02F59D4205D303FA69
:1001800002F5491B04FA02F52844151EA2F10102EA
:10019000F1DC30BD064C074D06E0E06840F001039D
:1001A00094E8070098471034AC42F6D3FFF7C4FF39
:1001B000400B0008600B000800BFFEE770472DE908
:1001C000F0410246002500260020002300240027DD
:1001D00091F803C00CF00F0591F803C00CF0100C5F
:1001E000BCF1000F03D091F802C04CEA050591F86C
:1001F00000C0BCF1000F31D0146800202BE04FF09C
:10020000010C0CFA00F3B1F800C00CEA03069E42A0
:1002100020D183004FF00F0C0CFA03F7BC4305FA12
:1002200003FC4CEA040491F803C0BCF1280F06D18A
:100230004FF0010C0CFA00FCC2F814C00AE091F86F
:1002400003C0BCF1480F05D14FF0010C0CFA00FCC3
:10025000C2F810C0401C0828D1D31460B1F800C007
:10026000BCF1FF0F34DD546800202EE000F1080CD3
:100270004FF0010808FA0CF3B1F800C00CEA0306CD
:100280009E4221D183004FF00F0C0CFA03F7BC43C0
:1002900005FA03FC4CEA040491F803C0BCF1280FF2
:1002A00005D100F1080C08FA0CF8C2F8148091F896
:1002B00003C0BCF1480F07D100F1080C4FF0010852
:1002C00008FA0CF8C2F81080401C0828CED35460FD
:1002D000BDE8F08108B50121102000F033F81020AE
:1002E0008DF803000F20ADF8000003208DF8020008
:1002F00069460C48FFF763FF0F210A4800F01AF81F
:1003000028208DF80300F020ADF8000003208DF8C0
:10031000020069460348FFF752FFF021014800F050
:1003200007F808BD001001400146886880B2704798
:10033000416170470161704700BFFEE700BFFEE703
:100340007047704729B1064A92690243044B9A618B
:1003500004E0034A92698243014B9A6170470000AE
:100360000010024030B500210022002400232D4D52
:100370006D6805F00C0121B1042905D0082923D1AD
:1003800005E0294D056022E0274D05601FE0254D61
:100390006D6805F47012234D6D6805F480340225F4
:1003A00005EB92421CB9214D554305600BE01D4DF4
:1003B0006D6805F400351DB11C4D5543056002E024
:1003C000194D5543056002E0174D056000BF00BFA1
:1003D000144D6D6805F0F0010909154D6B5C056859
:1003E000DD4045600F4D6D6805F4E061090A104D70
:1003F0006B5C4568DD4085600A4D6D6805F46051B1
:10040000C90A0B4D6B5C4568DD40C560054D6D68E4
:1004100005F44041890B074D6B5CC568B5FBF3F5EE
:10042000056130BD0010024000127A0000093D0055
:100430001800002028000020704710B500F002F8D6
:1004400010BD00000CB500200190009033480068FA
:1004500040F480303149086000BF3048006800F443
:10046000003000900198401C0190009818B9019844
:10047000B0F5A06FF1D12948006800F4003010B148
:100480000120009001E0002000900098012843D155
:100490002348006840F010002149086008460068C1
:1004A00020F0030008600846006840F00200086081
:1004B0001A4840681949486008464068486008463C
:1004C000406840F4806048600846406820F47C1032
:1004D00048600846406840F4E810486008460068F4
:1004E00040F08070086000BF0C48006800F00070A9
:1004F0000028F9D00948406820F003000749486007
:100500000846406840F00200486000BF0348406869
:1005100000F00C000828F9D10CBD000000100240CA
:1005200000200240042808D14FF0E021096941F081
:1005300004014FF0E022116107E04FF0E02109696A
:1005400021F004014FF0E022116170477047000074
:1005500010B51348006840F00100114908600846D2
:100560004068104908400E494860084600680E4936
:1005700008400B4908600846006820F480200860A5
:100580000846406820F4FE0048604FF41F00886071
:10059000FFF753FF4FF000600449086010BD0000F2
:1005A000001002400000FFF8FFFFF6FE08ED00E03B
:1005B00000B585B0012144F20400FFF7C3FE4FF4FB
:1005C0000070ADF8100018208DF8130003208DF88E
:1005D000120004A91648FFF7F2FD4FF48060ADF851
:1005E000100004208DF8130004A91148FFF7E7FD5F
:1005F0004FF4E13000900020ADF80400ADF80600A3
:10060000ADF80800ADF80C000C20ADF80A00694602
:10061000084800F043F8012240F22551054800F057
:1006200017F80121034800F007F805B000BD0000ED
:10063000000801400038014021B1828942F4005293
:10064000828104E082894DF6FF731A4082817047EF
:10065000F0B50346002400260025002040F66A1766
:10066000B94200D100BF1846C1F3421401F01F0681
:10067000012707FA06F5012C01D10C3004E0022C09
:1006800001D1103000E014301AB107682F43076021
:1006900002E00768AF430760F0BD00002DE9F047B6
:1006A00086B005460E460024A24600BFA14600279C
:1006B000B08900B100BF2F462C8A4CF6FF70044071
:1006C000F08804432C82AC894EF6F3100440B088C5
:1006D00031890843718908430443AC81AC8A4FF6E1
:1006E000FF400440B0890443AC8201A8FFF73AFE02
:1006F0001F48874202D1DDF810A001E0DDF80CA010
:10070000A88900F4004040B10AEBCA0000EB0A10CF
:1007100031684900B0FBF1F807E00AEBCA0000EBD2
:100720000A1031688900B0FBF1F86420B8FBF0F0E2
:1007300004012009642101FB1089A88900F400400C
:1007400040B1322000EBC900B0FBF1F000F007002F
:10075000044308E0322000EB09106421B0FBF1F003
:1007600000F00F0004432C8106B0BDE8F0870000C4
:1007700000380140C1F308028280704700BFFEE7E5
:100780000FB4054B10B503A9044A029800F018F8FD
:1007900010BC5DF814FB0000A50900082C00002027
:1007A00002E008C8121F08C1002AFAD1704770473A
:1007B000002001E001C1121F002AFBD17047000098
:1007C0002DE9FF4F89B09B460446002506E0252809
:1007D0000BD05A460B999047641C6D1C207800285A
:1007E000F5D10DB02846BDE8F08F0027B8460122AC
:1007F000474900E0074314F8013F203B02FA03F0A9
:100800000842F7D120782E2819D114F8010F47F0AB
:1008100004072A280ED06FF02F022078A0F13001B3
:1008200009290CD808EB880102EB410100EB010813
:10083000641CF2E70A98641C50F8048B0A90207834
:100840000028CED0642808D0692806D075281ED08C
:100850005A460B9990476D1C58E00A994FF00A09C7
:1008600001C90A91002802DA40422D2102E039052F
:1008700004D52B218DF82010012103E0F90704D0C5
:100880002021F7E78A4608AE0DE00021FAE70A9931
:100890004FF00A0901C90A91F7E74946FFF764FCDE
:1008A000303106F8011D0028F7D1ADEB060000F14C
:1008B0002009780701D44FF00108C84502DDA8EBF4
:1008C000090000E000208046002706E008A85A46FC
:1008D000C05D0B9990476D1C7F1C5745F6DB04E00B
:1008E00030205A460B9990476D1CB8F10001A8F1D1
:1008F0000108F5DC05E016F8010B5A460B99904704
:100900006D1CB9F10001A9F10109F4DC641C65E773
:100910000928010010B56FF00400FFF703FE0A4834
:1009200000680A49B0FBF1F00949087008460078F0
:1009300000EB4001C1EBC0104FF6FF7101EAC000AF
:100940000449088010BD00000000002000127A0059
:1009500014000020160000200146114A12884A4364
:100960004FF0E0235A6100229A611A46126942F060
:1009700001021A6100BF4FF0E022106900F001028D
:100980001AB100F48032002AF5D04FF0E02212694B
:1009900022F001024FF0E0231A6100229A617047B1
:1009A0001600002070B504460D46E1B20548FFF779
:1009B000E1FE00BF0348008800F080000028F9D065
:1009C000204670BD0038014010B50F214E48FFF79A
:1009D000B1FCF0214C48FFF7ABFC4B48FFF7A4FCFF
:1009E000C0B20F2877D06420FFF7B6FF4648FFF764
:1009F0009BFCC0B20F28F5D001214348FFF79AFCB9
:100A00000E214148FFF794FC3F48FFF78DFCC0B230
:100A1000112806D0212806D0412806D0812808D1E7
:100A200005E0012405E0022403E0032401E004249E
:100A300000BF00BF02213448FFF77CFC0D21324883
:100A4000FFF776FC3048FFF76FFCC0B2122806D0E3
:100A5000222806D0422806D0822808D105E00524A5
:100A600005E0062403E0072401E0082400BF00BFDE
:100A700004212548FFF75EFC0B212348FFF758FCB3
:100A80002148FFF751FCC0B2142806D0242806D014
:100A9000442806D0842808D105E0092405E00A246A
:100AA00003E00B2401E00C2400BF00BF082116481E
:100AB000FFF740FC07211448FFF73AFC1248FFF704
:100AC00033FCC0B2182807D0282807D0482807D000
:100AD000882809D106E015E00D2405E00E2403E086
:100AE0000F2401E0102400BF00BF0F210648FFF7CC
:100AF00021FCF0210448FFF71BFC2820FFF72CFF06
:100B0000204610BD0020FCE7001001400024FFF744
:100B100001FFFFF7DFFBFFF757FFFFF749FD09E094
:100B2000FFF752FF0446214603A0FFF729FE3220BB
:100B3000FFF712FFF4E700002020256420200000CA
:100B4000600B00080000002030000000A007000833
:100B5000900B00083000002000040000B0070008DF
:100B600000A24A040000000000000000010203048B
:100B7000060708090000000000000000010203044D
:100B80000102030406070809020406080000000029
:0400000508000145A9
:00000001FF
