:020000040800F2
:100000002805002001010008090100080B01000873
:100010000D0100080F010008110100080000000098
:1000200000000000000000000000000013010008B4
:100030001501000800000000170100082D2A000823
:100040001B0100081B0100081B0100081B01000820
:100050001B0100081B0100081B0100081B01000810
:100060001B0100081B0100081B0100081B01000800
:100070001B0100081B0100081B0100081B010008F0
:100080001B0100081B0100081B0100081B010008E0
:100090001B0100081B0100081B0100081B010008D0
:1000A0001B0100081B0100081B0100081B010008C0
:1000B0001B0100081B0100081B0100081B010008B0
:1000C0001B0100081B0100081B0100081B010008A0
:1000D0001B0100081B010008D52900081B010008AE
:1000E0001B0100081B0100081B010008DFF80CD0F1
:1000F00003F078FA00480047811F00082805002017
:100100000648804706480047FEE7FEE7FEE7FEE7B1
:10011000FEE7FEE7FEE7FEE7FEE7FEE70102000876
:10012000ED0000080CB50020019000906B480068BD
:1001300040F480306949086000BF6848006800F4F6
:10014000003000900198401C0190009818B9019867
:10015000B0F5A06FF1D16148006810F4003F02D003
:100160000120009001E0002000900098012842D179
:100170005B48006840F01000594908600846006874
:1001800020F0030008600846006840F002000860A4
:1001900052484068514948600846406848600846EF
:1001A000406840F4806048600846406820F47C1055
:1001B00048600846406840F4E81048600846006817
:1001C00040F08070086000BF4448006810F0007F75
:1001D000FAD04248406820F0030040494860084691
:1001E000406840F00200486000BF3C48406800F0B2
:1001F0000C000828F9D10CBD10B5FFF793FF10BD16
:1002000010B53648006840F00100344908600846DF
:10021000406834490840314948600846006832491E
:1002200008402E4908600846006820F480200860D5
:100230000846406820F4FE0048604FF41F008860C4
:10024000FFF7DAFF4FF000602849086010BD10B5D5
:10025000002100200022214B5B6803F00C0121B13A
:10026000042906D0082928D107E0214B214C23601E
:1002700027E01F4B1F4C236023E0184B5B6803F4FF
:100280007010164B5B6803F48032022303EB90403E
:1002900022B9194B4343174C23600DE00F4B5B68A9
:1002A00013F4003F04D0144B4343124C236003E08B
:1002B0000F4B43430F4C236003E00D4B0D4C236069
:1002C00000BF00BF054B5B68C3F303130B4CE15C3D
:1002D000084B1B68CB40074C236010BD0010024048
:1002E000002002400000FFF8FFFFF6FE08ED00E0EE
:1002F00000127A000000002000093D0004000020E8
:1003000010B50446CA48844208D10121042000F0F7
:1003100027FB0021042000F023FB46E0C54884426F
:1003200008D10121082000F01BFB0021082000F06B
:1003300017FB3AE0C048844208D10121102000F0A8
:100340000FFB0021102000F00BFB2EE0BB48844285
:1003500008D10121202000F003FB0021202000F023
:10036000FFFA22E0B648844208D10121402000F083
:10037000F7FA0021402000F0F3FA16E0B148844279
:1003800008D10121802000F0EBFA0021802000F04C
:10039000E7FA0AE0AC48844207D10121801500F059
:1003A000DFFA0021A01500F0DBFA10BD10B5012125
:1003B000084600F0D5FA0021012000F0D1FA10BD66
:1003C0002DE9F041024600250026002000230024EC
:1003D000002791F803C00CF00F0591F803C01CF042
:1003E000100F03D091F802C04CEA050591F800C047
:1003F000BCF1000F31D0146800202BE04FF0010C4D
:100400000CFA00F3B1F800C00CEA03069E4220D1BA
:1004100083004FF00F0C0CFA03F7BC4305FA03FC02
:100420004CEA040491F803C0BCF1280F06D14FF048
:10043000010C0CFA00FCC2F814C00AE091F803C0E9
:10044000BCF1480F05D14FF0010C0CFA00FCC2F8CA
:1004500010C0401C0828D1D31460B1F800C0BCF112
:10046000FF0F34DD546800202EE000F1080C4FF03F
:10047000010808FA0CF3B1F800C00CEA03069E422A
:1004800021D183004FF00F0C0CFA03F7BC4305FA9F
:1004900003FC4CEA040491F803C0BCF1280F05D119
:1004A00000F1080C08FA0CF8C2F8148091F803C0A7
:1004B000BCF1480F07D100F1080C4FF0010808FA11
:1004C0000CF8C2F81080401C0828CED35460BDE858
:1004D000F0814FF6FF710180022181700421C1700B
:1004E00070470246002093680B4201D0012000E0D3
:1004F000002070470146886880B27047024600209D
:10050000D3680B4201D0012000E000207047014673
:10051000C86880B2704701617047416170470AB195
:10052000016100E041617047C16070474FF4803263
:100530000A438261816182618269826970470246F1
:100540000020424B18684FF68073184040EA0210B2
:1005500008433E4B186070473D49C8617047F0B58D
:100560000A46002300240021002500F00046B6F1D1
:10057000004F02D1354EF16901E0344E7168C0F38D
:10058000034583B200F44016B6F5401F08D121F0B0
:1005900070612E4E766826F070662C4F7E6012E0F9
:1005A00000F48016B6F5801F06D1032606FA05F47E
:1005B000A14341F0706106E0460D360103FA06F6EC
:1005C000B14341F0706122B1460D360103FA06F6DF
:1005D000314300F00046B6F1004F02D11B4EF161ED
:1005E00001E01A4E7160F0BD30B500228B071C0F80
:1005F0000F2303FA04F2154B08338C1053F8243000
:100600009343124C08348D1044F8253023468C1047
:1006100053F824308C07240F00FA04F423430B4CC6
:1006200008348D1044F8253030BD0A490860704701
:1006300000080140000C014000100140001401407E
:1006400000180140001C0140002001400000014052
:1006500000002042DC002042DD48006840F001003C
:10066000DB49086008464068DA490840D8494860D4
:1006700008460068D8490840D5490860084600681F
:1006800020F4802008600846406820F4FE0048609E
:100690004FF41F0088607047CD49096821F480310C
:1006A000CB4A11601146096821F480211160B0F530
:1006B000803F03D0B0F5802F0ED106E0C449096811
:1006C00041F48031C24A116007E0C149096841F430
:1006D000A021BF4A116000E000BF00BF704710B505
:1006E00001460022002300204A11012A02D1B84C01
:1006F000236806E0022A02D1B54C236A01E0B44C1B
:10070000636A01F01F02012494401C4201D00120C1
:1007100000E0002010BD38B5002000900024002526
:1007200000BF3120FFF7DBFF05460098401C00901A
:100730000098B0F5A06F01D0002DF2D03120FFF766
:10074000CEFF08B1012400E00024204638BD014658
:1007500000209F4A106820F0F80040EAC1001060B5
:1007600070479E490860704702460020984B5868C1
:1007700020F47C1042EA01031843954B58607047FF
:1007800096490866704701460020914A506820F05B
:1007900003000843506070478D48406800F00C002B
:1007A0007047014600208A4A506820F0F000084354
:1007B0005060704701460020854A506820F4E06090
:1007C00008435060704701460020814A506820F479
:1007D000605040EAC1005060704729B17C4A527AAB
:1007E00002437B4B5A7204E0794A527A8243784B37
:1007F0005A7270477A490860704701460020744A6F
:10080000506820F440400843506070470021754A0A
:1008100011706F4A82F82010012802D0042808D1F4
:1008200003E001216F4A117004E005216D4A117047
:1008300000E000BF00BF70476B4908607047644923
:10084000096A0143624A1162704767494439086086
:10085000704730B500210022002400235C4D6D68F4
:1008600005F00C0121B1042905D0082923D105E0A8
:100870005E4D056022E05D4D05601FE0544D6D68E2
:1008800005F47012524D6D6805F48034022505EBB5
:1008900092421CB9564D554305600BE04C4D6D68B6
:1008A00015F4003F03D0524D5543056002E04F4D13
:1008B0005543056002E04D4D056000BF00BF444D4B
:1008C0006D6805F0F00109094A4D6B5C0568DD4073
:1008D00045603F4D6D6805F4E061090A454D6B5C6C
:1008E0004568DD4085603A4D6D6805F46051C90A80
:1008F000404D6B5C4568DD40C560354D6D6805F465
:100900004041890B3C4D6B5CC568B5FBF3F5056157
:1009100030BD29B12E4A526902432D4B5A6104E081
:100920002B4A526982432A4B5A61704729B1284A9F
:1009300092690243264B9A6104E0254A92698243F8
:10094000234B9A61704729B1214AD2690243204B57
:10095000DA6104E01E4AD26982431D4BDA617047B6
:1009600029B11B4AD2680243194BDA6004E0184AE5
:10097000D2688243164BDA60704729B1144A126973
:100980000243134B1A6104E0114A12698243104B6F
:100990001A61704714494039086070470F49C864AC
:1009A00070470B49C87170470948406A40F0807031
:1009B00007494862704701460020054A92680A428A
:1009C00001D0012000E00020704701498872704783
:1009D000001002400000FFF8FFFFF6FE0000424258
:1009E000D8004242201002408004424200127A00A5
:1009F00000093D001400002024000020314901437B
:100A0000314A1160704770B5002100230F22C4786D
:100A10000CB32D4C246804F4E064C4F5E064210AAE
:100A2000C1F10403CA40447804FA03F18478144005
:100A300021430901254C0678A155047804F01F05CF
:100A40000124AC4005786D114FF0E02606EB8505DA
:100A5000C5F8004109E0047804F01F050124AC400A
:100A60001B4D0678761145F8264070BD194A0A409C
:100A70000243154B1B1F1A60704739B1124A121DF1
:100A800012680243104B1B1D1A6006E00E4A121D2D
:100A9000126882430C4B1B1D1A607047042808D152
:100AA0004FF0E021096941F004014FF0E0221161AB
:100AB00007E04FF0E021096921F004014FF0E02246
:100AC000116170470000FA050CED00E000E400E061
:100AD00080E100E080FFFF1F10B50446FA48844221
:100AE00008D101214015FFF73BFF00216015FFF7FA
:100AF00037FF17E0F548844208D101210015FFF7C0
:100B00002FFF00212015FFF72BFF0BE0F048844258
:100B100008D10121C803FFF723FF00214FF4004053
:100B2000FFF71EFF10BD30B50246002000235068BD
:100B3000E84C20400D790C6844EA052420435060BD
:100B40009068E54C2040D1E902542C434D7944EAA9
:100B5000450420439060D06A20F470000C7C641E31
:100B6000E4B2234340EA0350D06230BD002101606B
:100B7000017141718160C16001210174704721B12F
:100B8000826842F00102826003E0826822F0010282
:100B90008260704721B1826842F48072826003E013
:100BA000826822F480728260704710B50023CBB255
:100BB0001AB144681C43446002E044689C434460AA
:100BC00010BD816841F00801816070470146002036
:100BD0008A6812F0080F01D0012000E00020704761
:100BE000816841F0040181607047014600208A68F5
:100BF00012F0040F01D0012000E00020704721B165
:100C0000826842F4A002826003E0826822F4A002BB
:100C100082607047014600208A6812F4800F01D07C
:100C2000012000E00020704710B50A460021002393
:100C3000416821F46041531E41EA4331416010BDD7
:100C400021B1426842F40062426003E0426822F44B
:100C5000006242607047F0B504460D460020002156
:100C6000092D11DDE068A5F10A0606EB4607072607
:100C700006FA07F18843A5F10A0606EB460603FAD1
:100C800006F10843E0600CE0206905EB4507072604
:100C900006FA07F1884305EB450603FA06F1084317
:100CA0002061072A0FDA606B561E06EB86071F26A7
:100CB00006FA07F18843561E06EB860605FA06F18A
:100CC0000843606322E00D2A0FDA206BD61F06EB83
:100CD00086071F2606FA07F18843D61F06EB86060D
:100CE00005FA06F10843206310E0E06AA2F10D0660
:100CF00006EB86071F2606FA07F18843A2F10D06C8
:100D000006EB860605FA06F10843E062F0BD21B164
:100D1000826842F48012826003E0826822F48012CA
:100D2000826070470146C86C80B2704766484C309C
:100D30000068704721B1426842F48062426003E07B
:100D4000426822F480624260704721B1426842F4F6
:100D50008052426003E0426822F480524260704751
:100D60000A460021816821F4E04111438160704707
:100D700021B1826842F40042826003E0826822F47A
:100D800000428260704721B1826842F402128260A0
:100D900003E0826822F4021282607047014600205C
:100DA0008A6812F4001F01D0012000E00020704783
:100DB000F0B504461546002000220026092911DD61
:100DC000E068A1F10A0707EB470C072707FA0CF2C6
:100DD0009043A1F10A0707EB470703FA07F2104314
:100DE000E0600CE0206901EB410C072707FA0CF2E8
:100DF000904301EB410703FA07F210432061A06B17
:100E0000C0F30156EF1C06F1010CA7EB0C0707EB32
:100E1000870C1F2707FA0CF29043EF1C06F1010C18
:100E2000A7EB0C0707EB870701FA07F21043A06353
:100E3000F0BD10B50A4600210023816B21F440115A
:100E4000531E41EA0351816310BD08B5002300938E
:100E50000090009B0B440093009B1A6008BD08B5EE
:100E6000024600200090009201F12800009B1844E7
:100E700000900098006880B208BD0A4600214168D1
:100E8000164B1940114341607047416282627047BE
:100E90000A460021416821F01F011143416070475B
:100EA00040B109490831096841F40001064A083295
:100EB000116007E004490831096821F40001024A81
:100EC00008321160704700000024014000280140F2
:100ED000003C0140FFFEF0FFFDF7F1FFFFFD3FFF8B
:100EE0000246002013680B4201D0012000E00020E0
:100EF0007047CA430260704770B502460020002365
:100F000000240B125568CEB205EA060415681D428E
:100F100002D00CB1012000E0002070BD00220A12B6
:100F2000D34303607047000001684FF6FE72114022
:100F300001600021016041608160C1608C4988428C
:100F400008D18B490839496841F00F01884A083AAD
:100F500051608AE086491431884208D184490839B1
:100F6000496841F0F001824A083A51607DE08049C9
:100F70002831884208D17E490839496841F47061B6
:100F80007B4A083A516070E079493C31884208D187
:100F900077490839496841F47041754A083A516007
:100FA00063E073495031884208D171490839496872
:100FB00041F470216E4A083A516056E06C49643140
:100FC000884208D16A490839496841F47001684A81
:100FD000083A516049E066497831884208D164494D
:100FE0000839496841F07061614A083A51603CE053
:100FF0006049884206D1011F096841F00F01021FB4
:10100000116032E05B491431884208D15949091F07
:10101000096841F0F001574A121F116025E0554957
:101020002831884208D15349091F096841F4706189
:10103000504A121F116018E04E493C31884208D1D5
:101040004C49091F096841F470414A4A121F116056
:101050000BE048495031884207D14649091F0968C9
:1010600041F47021434A121F1160704710B50022ED
:10107000026847F6F0739A430C6A8B6823430C6945
:1010800023434C6923438C692343CC6923434C6A33
:1010900023438C6A23431A430260CB6843600B6886
:1010A00083604B68C36010BD0021016041608160B6
:1010B000C160016141618161C1610162416281621E
:1010C000704721B1026842F00102026004E0026848
:1010D0004FF6FE731A40026070471AB103680B4363
:1010E000036002E003688B43036070474160704710
:1010F0000146486880B2704701460020002211F086
:10110000805F03D01B4B083B1A6802E0184B083B7A
:101110001A680A4201D0012000E00020704710F058
:10112000805F03D01349091F086002E010490839A5
:101130004860704701460020002211F0805F03D014
:101140000C4B083B1A6802E0094B083B1A680A423C
:1011500001D0012000E00020704710F0805F03D034
:101160000449091F086002E00149083948607047D6
:10117000080002400804024010B50446FB488442BF
:1011800009D101218803FFF7EBFB00214FF48040D8
:10119000FFF7E6FB32E0F648844209D1012148041A
:1011A000FFF7EBFB00214FF40030FFF7E6FB25E0F3
:1011B000F048844209D101218804FFF7DEFB0021B9
:1011C0004FF48020FFF7D9FB18E0EB48844209D1A7
:1011D0000121C804FFF7D1FB00214FF40020FFF7E5
:1011E000CCFB0BE0E548844208D101210805FFF75C
:1011F000C4FB00214FF48010FFF7BFFB10BD2DE9A9
:10120000F04786B005460E460024A24600BFA14620
:101210000027B08900B100BF2F462C8A4CF6FF7022
:101220000440F08804432C82AC894EF6F31004404D
:10123000B08831890843718908430443AC81AC8A82
:101240004FF6FF400440B0890443AC8201A8FFF789
:1012500000FBC648874202D1DDF810A001E0DDF8AE
:101260000CA0A88910F4004F08D00AEBCA0000EBCC
:101270000A1031684900B0FBF1F807E00AEBCA0038
:1012800000EB0A1031688900B0FBF1F86420B8FB6C
:10129000F0F004012009642101FB1089A88910F4F1
:1012A000004F08D0322000EBC900B0FBF1F000F095
:1012B0000700044308E0322000EB09106421B0FB72
:1012C000F1F000F00F0004432C8106B0BDE8F08778
:1012D0004FF41651016000218180C18001810C21F1
:1012E000418100218181704710B502460020108A9B
:1012F0004FF2FF0318400B884C8823438C8823430C
:10130000CC8823431843108210BD00210180418006
:101310008180C180704721B1828942F4005282816C
:1013200004E082894DF6FF731A4082817047F0B560
:1013300003460024002600250020A1F510676A3F1F
:1013400000D100BF1846C1F3421401F01F06012767
:1013500007FA06F5012C01D10C3004E0022C01D172
:10136000103000E014301AB107682F43076002E024
:101370000768AF430760F0BD1AB1838A0B438382CD
:1013800002E0838A8B4383827047028A4FF6F073B0
:101390001A400282028A0A430282704782894FF20F
:1013A000FF731A40828182890A438281704721B18A
:1013B000828942F00202828104E082894FF6FD7345
:1013C0001A4082817047028A4FF6DF731A40028208
:1013D000028A0A430282704721B1028A42F48042A3
:1013E000028204E0028A4BF6FF731A4002827047C1
:1013F000C1F308028280704701468888C0F3080064
:101400007047818941F0010181817047028BD2B21E
:101410000283028B42EA012202837047028B02F4AC
:101420007F420283028B0A430283704721B1828A82
:1014300042F02002828204E0828A4FF6DF731A4073
:101440008282704721B1828A42F01002828204E0D7
:10145000828A4FF6EF731A408282704721B1828AE6
:1014600042F00802828204E0828A4FF6F7731A4043
:101470008282704721B1828942F40042828103E076
:101480008289C2F30E028281704721B1828A42F4BE
:101490000062828204E0828A4FF2FF731A408282E5
:1014A0007047828A4FF6FB731A408282828A0A430F
:1014B0008282704721B1828A42F00202828204E075
:1014C000828A4FF6FD731A408282704702460020DE
:1014D000B1F5007F00D100BF13880B4201D001207D
:1014E00000E00020704701F40072B2F5007F00D1E7
:1014F00000BFCA430280704770B502460024002333
:1015000000250020A1F510666A3E00D100BFC1F39E
:10151000421501F01F03012606FA03F3012D02D143
:101520009689334006E0022D02D1168A334001E04D
:10153000968A33400C12012606FA04F416883440C9
:1015400013B10CB1012000E0002070BD10B50022E5
:101550000023A1F510646A3C00D100BF0A120124E7
:101560009440A3B2DC43048010BD00000038014069
:101570000044004000480040004C00400050004043
:10158000002109E0002201E0531C9AB240F6B83372
:101590009A42F9DB4B1C99B28142F3DB70474FF45E
:1015A0000072FA4B1A6052101A6020221B1F1A6038
:1015B000F74AD06020221B1D1A601B1F1A60D20040
:1015C0001A60F34AD16020221B1D1A601B1F1A608B
:1015D000D2001A60704700B501210020FFF7DFFF3D
:1015E0004FF47A70FFF7CCFF00210120FFF7D7FFFF
:1015F00041F290711020FFF7D2FF4FF41C51602090
:10160000FFF7CDFF01216120FFF7C9FF022146202E
:10161000FFF7C5FF48F210011320FFF7C0FF48F2A3
:10162000FE011220FFF7BBFF4FF4A0610220FFF77D
:10163000B6FF41F230010320FFF7B1FF40F2033162
:101640003020FFF7ACFF40F203313120FFF7A7FF56
:1016500040F203313220FFF7A2FF4FF440713320F4
:10166000FFF79DFF03213420FFF799FF40F203317C
:101670003520FFF794FF14213620FFF790FF40F24A
:1016800003313720FFF78BFF40F203313820FFF79B
:1016900086FF40F203313920FFF781FF4FF440719C
:1016A0003A20FFF77CFF03213B20FFF778FF40F251
:1016B00003313C20FFF773FF4FF4A0513D20FFF7AB
:1016C0006EFF4FF400719220FFF769FF40F2033183
:1016D0009320FFF764FF40F60D019020FFF75FFFB6
:1016E00041F218010320FFF75AFF40F2731107205F
:1016F000FFF755FF00BD00B543F20801E320FFF7F7
:101700004EFF1221E720FFF74AFF41F23121EF207F
:10171000FFF745FF00210120FFF741FF4FF4E06193
:101720000220FFF73CFF41F230010320FFF737FFB3
:1017300000210420FFF733FF40F207210820FFF7C4
:101740002EFF00210920FFF72AFF00210A20FFF7C2
:1017500026FF00210C20FFF722FF00210D20FFF7BC
:101760001EFF00210F20FFF71AFF00211020FFF7B6
:1017700016FF07211120FFF712FF00211220FFF7AB
:101780000EFF00211320FFF70AFF4FF47A70FFF7D6
:10179000F7FE41F290611020FFF701FF40F2272190
:1017A0001120FFF7FCFE3220FFF7EAFE1D21122078
:1017B000FFF7F5FE3220FFF7E3FE4FF40061132040
:1017C000FFF7EDFE14212920FFF7E9FE0B212B2066
:1017D000FFF7E5FE3220FFF7D3FE00212020FFF7C0
:1017E000DEFE00212120FFF7DAFE07213020FFF77F
:1017F000D6FE40F207713120FFF7D1FE06213220DC
:10180000FFF7CDFE40F204713520FFF7C8FE41F628
:1018100004713620FFF7C3FE04213720FFF7BFFE17
:1018200000213820FFF7BBFE40F206713920FFF798
:10183000B6FE40F201713C20FFF7B1FE0F213D20C2
:10184000FFF7ADFE00215020FFF7A9FEEF21512048
:10185000FFF7A5FE00215220FFF7A1FE40F23F1145
:101860005320FFF79CFE4FF41C516020FFF797FEBA
:1018700001216120FFF793FE00216A20FFF78FFE10
:1018800000218020FFF78BFE00218120FFF787FEDB
:1018900000218220FFF783FE00218320FFF77FFED7
:1018A00000218420FFF77BFE00218520FFF777FED3
:1018B00010219020FFF773FE00219220FFF76FFEAA
:1018C00003219320FFF76BFE4FF488719520FFF7FB
:1018D00066FE00219720FFF762FE00219820FFF7A7
:1018E0005EFE41F218010320FFF759FE40F273112A
:1018F0000720FFF754FE00BD08B54FF6FF70ADF8A6
:10190000000003208DF8020010208DF803006946C6
:101910001F48FEF755FD08BD08B54FF6FF70ADF83E
:10192000000003208DF8020048208DF8030069466E
:101930001748FEF745FD08BD70B504464FF400702A
:1019400012490860401008602020091F08601048F4
:10195000C4602020091D0860091F0860C0000860DD
:10196000FFF7DAFF4FF48060084908600848806894
:1019700085B20815091F0860FFF7BEFF4FF400701D
:101980000249091F0860284670BD0000140C014080
:101990000010014008B501211820FEF7C7FF012102
:1019A0002020FEF7C3FF4FF4E460ADF800000120F3
:1019B0008DF8020010208DF803006946F848FEF704
:1019C000FFFCFFF799FFF6481030006840F4C46050
:1019D000F3491031086008BD10B5FFF7DBFF0020A8
:1019E000FFF7AAFFEF49088008460088A0F50241EA
:1019F000303902D1FFF7EFFD01E0FFF77CFE002058
:101A0000FFF79AFFE749088010BD01B5BDF8000057
:101A1000E549088008BD01B5BDF80000E34908802C
:101A200008BD30B504460D4621462020FFF7B7FD1E
:101A300029462120FFF7B3FD30BD4FF40071D84A8D
:101A4000143211604910121F116020211160D84911
:101A5000C8602021121D1160121F1160C9001160A1
:101A60004900116070474FF40070CD49143108608F
:101A7000401008602020091F08602220CC49C8605F
:101A80002020C74914310860091F0860C0000860A1
:101A90004000086070472DE9F04306468946174626
:101AA00000240025A046B04649464046FFF7B9FF4E
:101AB00000BF1EE0FFF7D7FF00250FE037F8140046
:101AC0000121A940084204D1B8480088FFF7B5FFBA
:101AD00003E0B5480088FFF7B0FF6D1C102DEDD373
:101AE00008F1010000F0FF0849464046FFF799FF62
:101AF000641C182CDED3BDE8F08370B505460E4695
:101B00001446A4F12000C4B204EB4400A94901EB3F
:101B1000001231462846FFF7BEFF70BDF0B50746FC
:101B20000C46002540F23F1609E02278314638463F
:101B3000FFF7E3FFA6F1100086B2641C6D1C20784D
:101B400008B1142DF1D3F0BD10B504469AA120467A
:101B5000FFF7E4FF10BD30B505460024002108461C
:101B6000FFF75FFFFFF77FFF00BF03E02846FFF7A7
:101B700064FF641CB4F5963FF8D330BDF0B504465D
:101B80000D4616461F46B44206DBA01B401C81B220
:101B90005020FFF704FD03E000215020FFF7FFFC79
:101BA00021465120FFF7FBFCBD4206DBE81B401C31
:101BB00081B25220FFF7F3FC03E000215220FFF72F
:101BC000EEFC29465320FFF7EAFC29462046FFF7A2
:101BD00028FFF0BD00B54FF4A073F022591EEF208E
:101BE000FFF7CCFF41F218010320FFF7D8FC00BD3E
:101BF0002DE9F0410646884615461F460024414619
:101C00003046FFF70EFF5FB9FFF72DFF00BF04E07E
:101C100065480088FFF711FF641CAC42F8D310E060
:101C200000240CE0FFF71FFF5F480088FFF705FF67
:101C3000701CC6B241463046FFF7F3FE641CAC424E
:101C4000F0D3BDE8F081F0B505460E4617461C46B8
:101C50000023224631462846FFF7CAFFE919C8B2D9
:101C6000002322463146FFF7C3FF01233A4631469F
:101C70002846FFF7BDFF301B401C81B201233A46C6
:101C80002846FFF7B5FFF0BD2DE9F04306460F46A5
:101C900090460320A0EB4809002445466EE07A19DF
:101CA00091B23219D0B2FFF7BCFEFFF7DCFE3E481E
:101CB0000088FFF7C2FE7A1B91B23219D0B2FFF74B
:101CC000B0FEFFF7D0FE38480088FFF7B6FE7A195D
:101CD00091B2321BD0B2FFF7A4FEFFF7C4FE324828
:101CE0000088FFF7AAFE7A1B91B2321BD0B2FFF731
:101CF00098FEFFF7B8FE2C480088FFF79EFE3A19C1
:101D000091B27219D0B2FFF78CFEFFF7ACFE2648F5
:101D10000088FFF792FE3A1B91B27219D0B2FFF71A
:101D200080FEFFF7A0FE20480088FFF786FE3A19E4
:101D300091B2721BD0B2FFF774FEFFF794FE1A48FF
:101D40000088FFF77AFE3A1B91B2721BD0B2FFF700
:101D500068FEFFF788FE14480088FFF76EFEB9F1B1
:101D6000000F04DA062000EB8400814405E0601BCC
:101D70000A2101EB800081446D1E641CAC428ED9A7
:101D8000BDE8F08370B506460024002540F23F11FF
:101D90000020FFF746FEFFF766FE00BF2DE00000C3
:101DA000000C01402C000020280000202A00002008
:101DB00000100140803F000820202020202020200B
:101DC0002020202020202020202020200000000093
:101DD00000250FE056F824000121A940084204D153
:101DE0005F480088FFF729FE03E05E480088FFF7A0
:101DF00024FE6D1C202DEDD3641CB4F5166FE7D3C3
:101E000070BD70B50446002500266688A08846EAA5
:101E100000466589A08945EA0045701B46082C44A8
:101E200041F208010320FFF7BAFBFFF71CFE002573
:101E300004E02088FFF701FEA41C6D1CB542F8D316
:101E400041F218010320FFF7AAFB70BD10B54FF453
:101E5000007045490860401008602020091F086094
:101E600022204249C86020203F490860091F0860BD
:101E7000C0000860FFF750FD4FF480603A490860E9
:101E80003A48806884B20815091F0860FFF734FDDE
:101E90004FF400703449091F0860204610BD00B59A
:101EA00000211020FFF77BFB00211120FFF777FBBB
:101EB00000211220FFF773FB00211320FFF76FFBB7
:101EC0001420FFF75DFB41F2B0711020FFF767FBB4
:101ED00040F237111120FFF762FB0520FFF750FB9E
:101EE00040F239111220FFF75AFB0520FFF748FB9B
:101EF0004FF4E8511320FFF752FB13212920FFF77D
:101F00004EFB0520FFF73CFB40F273110720FFF763
:101F100046FB00BD00B540F273110720FFF73FFB01
:101F200000BD00B500210720FFF739FB00BD30B52B
:101F3000054600210846FFF774FDFFF794FD0024D5
:101F400009E015F814206100491C695C42EA01208F
:101F5000FFF773FD641CB4F5963FF2DB30BD000063
:101F60002A00002028000020140C0140001001402D
:101F7000FD49086000BFFC4909680029FBD1704792
:101F8000FA4800684FF47A72B0FBF2F1481EB0F1E3
:101F9000807F00D31BE0481E4FF0E02250615017B5
:101FA0000F22002807DA13071D0EF14B00F00F0473
:101FB000241F1D5503E013071C0EEE4B1C5400BFDD
:101FC00000204FF0E02290610720106100BFC82080
:101FD000FFF7CEFF00F0BDFD00F0D3FD00F09EFF47
:101FE00000F0D8FF00F046FFFFF7F6FC1F20FFF7D8
:101FF000B2FD1F20FFF70FFD0020FFF706FDB2E145
:10200000DD480178042000F048FFDC480178052015
:1020100000F043FFDA480178062000F03EFFD9487F
:102020000078C8B9D8480078012815D1022000F0FE
:102030004EFFD6480178D6A001F018FB032000F02F
:1020400046FFD2480178D4A001F010FBD4A001F0E3
:102050000DFB0120CB490870D248007801281DD122
:10206000042000F034FFC9480178CFA001F0FEFA47
:10207000052000F02CFFC5480178CDA001F0F6FA4C
:10208000062000F024FFC1480178CBA001F0EEFA51
:10209000C3A001F0EBFA0220C2490870C8480078DA
:1020A00018B1C748007802287ED10120C5490870C0
:1020B0000020FFF7AAFCC4A1C94801F0E7FAC8490B
:1020C0001820FFF72BFDC749088801F077F806466E
:1020D0004FF06632C44B00F087FF04460022C34B2A
:1020E00000F0F4FF804601F09DF8C1490860084601
:1020F000006801F084F8044622460B46BDA1C248A0
:1021000001F0C4FAC0497820FFF708FDB5480088FF
:10211000652100FB01F4E11704EB1151081301F0F4
:1021200044F8BA4908600846006801F068F80446B7
:1021300022460B46B6A1BC4801F0A8FABA4948208D
:10214000FFF7ECFC00209E490870B849AF480068D2
:1021500001F084F815D80020B549086008460068E9
:1021600001F04DF8044622460B46B2A19C4801F00E
:102170008DFA9B49A820FFF7D1FC4FF47A70FFF746
:10218000F7FEAA49A148006801F072F81ED2AD49D5
:102190009E48006801F062F818D84FF07E50A449BC
:1021A00008600846006800E070E001F028F8044686
:1021B00022460B46A4A18A4801F068FA8849A82063
:1021C000FFF7ACFC4FF47A70FFF7D2FE9D498F48C1
:1021D000006801F04DF81CD2A1498C48006801F05C
:1021E0003DF816D84FF080409149086008460068D5
:1021F00001F005F8044622460B469AA1784801F002
:1022000045FA7749A820FFF789FC4FF47A70FFF769
:10221000AFFE93497D48006801F02AF81BD2964929
:102220007A48006801F01AF815D894488049086087
:102230000846006800F0E3FF044622460B4682A1F0
:10224000674801F023FA6649A820FFF767FC4FF4BE
:102250007A70FFF78DFE6648006800F0BCFFC4B2DC
:102260002146012000F019FE6848006800F0B3FF25
:10227000C4B22146022000F010FE6D48006800F054
:10228000AAFFC4B22146032000F007FE01217C48CA
:1022900000F09CFC00283ED14A490870484800786C
:1022A000401C474908700020FFF7AFFB75A1564856
:1022B00001F0ECF954491820FFF730FC2E4876A1C4
:1022C0000268514801F0E2F94F494820FFF726FC27
:1022D0002A4876A102684C4801F0D8F94A4978208A
:1022E000FFF71CFC264876A10268474801F0CEF9AA
:1022F0004549A820FFF712FC1F480178042000F090
:10230000CCFD1E480178052000F0C7FD1C4801786F
:10231000062000F0C2FD2B480078002823D14FF49E
:102320008071574800F052FC0028F7D1254800780A
:10233000401C2449087079E10221664800F046FCFF
:1023400080B90D480068052808DB0B4800685F2845
:1023500004DC09480068401D074908600648006819
:102360000528B9E0C8E029E33C0000200000002077
:1023700018ED00E000E400E0300000203400002010
:102380003800002042000020540000205A000020A5
:10239000433A4825640000002B4C256400000000EF
:1023A0000D0A000056000020533A544C25640000EA
:1023B0002B544D25640000002B5448256400000078
:1023C000400000204100002020202020204C697186
:1023D000756964204C6576656C2020200000000043
:1023E000600000205800002066660A400000B040EF
:1023F00048000020202020414443202020203A256E
:102400002E32665620202000920000204C00002032
:10241000202020486569676874203A252E3066635D
:102420006D20202020000000C4000020000020417A
:10243000500000202020204C6576656C20203A2535
:102440002E3066000000A0412020204C6576656C8F
:1024500020203A252E306620202020200000000079
:102460000000F0412020204C6576656C20203A2544
:102470002E306620202020000000C842000040408E
:1024800000080140202020506172616D6574657202
:102490002053657475702000205468726573686FEE
:1024A0006C6431203A202564636D0000205468720A
:1024B0006573686F6C6432203A202564636D000098
:1024C000205468726573686F6C6433203A20256409
:1024D000636D0000000C014002DC0520FE4908602D
:1024E000FD4800685F2802DB5F20FB490860FA486E
:1024F0000178042000F0D1FC0421F84800F066FBCC
:10250000F8B9F5480068052808DBF34800685F283B
:1025100004DCF1480068401FEF490860EE4800689D
:10252000052802DC0520EC490860EB4800685F28BC
:1025300002DB5F20E8490860E7480178042000F0EA
:10254000ACFCAFF2C001E64801F0A0F80020FFF7B4
:102550005CFAE3491820FFF7E1FAE248E2A10268D9
:10256000DF4801F093F80020FFF74FFADC497820AC
:10257000FFF7D4FAE148E2A10268D94801F086F8F1
:102580000020FFF742FAD649A820FFF7C7FAD24841
:10259000E0A10268D24801F079F84FF47840FFF7E3
:1025A00034FACF494820FFF7B9FA4FF48071DE487A
:1025B00000F00CFB20B9DD480078401CDB490870B6
:1025C0000121D94800F002FB38B9D8480078401DF5
:1025D000D64908700220D6490870D64800780128EC
:1025E00024D1042000F073FCD3480178AFF24820D6
:1025F00001F03CF8052000F06AFCCF480178AFF20A
:10260000502001F033F8062000F061FCCA48017840
:10261000AFF25C2001F02AF8AFF27C2001F026F83E
:102620000220C44908700120C0490870BF480078E2
:1026300001283FF481AEBDE00221A84800F0C6FAAF
:10264000F8B9A8480068052808DBA64800685F2894
:1026500004DCA4480068401DA2490860A148006845
:10266000052802DC05209F4908609E4800685F2815
:1026700002DB5F209B4908609A480178052000F042
:102680000CFC0421954800F0A1FAF8B995480068BF
:10269000052808DB934800685F2804DC914800683F
:1026A000401F904908608F480068052802DC05201B
:1026B0008C4908608B4800685F2802DB5F208949ED
:1026C000086088480178052000F0E7FBAFF24C2154
:1026D000834800F0DBFF0020FFF797F980491820BE
:1026E000FFF71CFA7C488BA102687D4800F0CEFF02
:1026F0000020FFF78AF97A494820FFF70FFA7F4850
:102700007FA10268764800F0C1FF0020FFF77DF945
:102710007349A820FFF702FA724873A10268704853
:1027200000F0B4FF4FF47840FFF76FF96C49782060
:10273000FFF7F4F94FF480717B4800F047FA20B9B5
:102740007A480078401C794908700121764800F0E9
:102750003DFA38B975480078401D74490870022068
:102760007349087073480078012823D1042000F0D1
:10277000AEFB71480178AFF2D03000F077FF052052
:1027800000F0A5FB6C480178AFF2DC3000F06EFF82
:10279000062000F09CFB68480178AFF2E43000F0BE
:1027A00065FFAFF2044000F061FF0220614908704C
:1027B0005E4908705D48007802283FF43DAFF8E0BC
:1027C0000221464800F002FAF8B94C480068052892
:1027D00008DB4A4800685F2804DC48480068401D60
:1027E0004649086045480068052802DC0520434941
:1027F0000860424800685F2802DB5F203F490860AC
:102800003E480178062000F048FB0421334800F0E0
:10281000DDF9F8B939480068052808DB2E4800685A
:102820005F2804DC35480068401F3449086033489D
:102830000068052802DC0520304908602F48006840
:102840005F2802DB5F202D4908602C4801780620B4
:1028500000F023FBAFF2D431214800F017FF002035
:10286000FFF7D3F81E491820FFF758F91A4829A195
:1028700002681B4800F00AFF0020FFF7C6F818495D
:102880004820FFF74BF9174817A10268144800F0D9
:10289000FDFE0020FFF7B9F811497820FFF73EF957
:1028A000164817A102680E4800F0F0FE4FF4784079
:1028B000FFF7ABF80A49A820FFF730F94FF4807111
:1028C000194800F083F920B918480078401C1749CE
:1028D00008701648007831E030000020000C0140FC
:1028E0009200002034000020205468726573686FE5
:1028F0006C6432203A202564636D2000380000208B
:10290000205468726573686F6C6433203A202564C4
:10291000636D2000205468726573686F6C643120A9
:102920003A202564636D200000080140410000202A
:1029300040000020560000205A000020042802D148
:1029400000201F49087001211E4800F03FF938B9E6
:102950001B480078401D1A49087002201A49087067
:102960001A480078012824D1042000F0B0FA184851
:102970000178AFF2CC5000F079FE052000F0A7FA04
:1029800013480178AFF2D85000F070FE062000F036
:102990009EFA0F480178AFF2E05000F067FEAFF208
:1029A000006000F063FE022008490870032004491B
:1029B00008700348007803283FF402AFFFF720BBFC
:1029C0004100002000080140400000205600002087
:1029D0005A00002010B540F225511748FEF78CFD33
:1029E000012822D140F225511448FEF7AFFD1248CC
:1029F000001D008812490870084600780E49091D1C
:102A000008800F480078432805D101200D4908703F
:102A100000200D4908700A480078532805D101208C
:102A20000A49087000200A49087010BD094800686A
:102A3000401E0849086070470044004000380140CB
:102A400055000020540000204200002056000020C5
:102A5000430000203C00002008B501210846FDF796
:102A600058FF01214FF40570FDF760FF0120ADF81C
:102A7000000000208DF8030069463948FDF7A0FCEE
:102A800008BD10B53748FEF79CF800BF3548FEF783
:102A90009DF80028FAD13348FEF7A2F800BF31486C
:102AA000FEF7A3F80028FAD110BD00B591B02E486A
:102AB000FEF73AFA2B484C3006902C48079000203D
:102AC00008900120099000200A9080200B9040007F
:102AD0000C9080000D9020200E9000020F9000209E
:102AE000109006A92048FEF7C1FA01211E48FEF702
:102AF000E8FA002001908DF8080001208DF8090007
:102B00004FF4602003900020049001208DF8140001
:102B100001A91448FEF707F84FF44040FDF76DFE99
:102B20000723012208210F48FEF795F801210D48DF
:102B3000FEF730F801210B48FEF721F80120FEF7DF
:102B4000AFF9FFF79EFF01210648FEF758F811B0D4
:102B500000BD10B5FFF780FFFFF7A7FF10BD000015
:102B6000000C0140002401400800024058000020F1
:102B700001B502E00098401E009000980028F9D1AD
:102B800008BD08B501210420FDF7D0FE0121082071
:102B9000FDF7CCFE40F20110ADF8000001208DF8E9
:102BA000020048208DF8030069461548FDF708FC2F
:102BB0000620ADF8000001208DF8020048208DF8B5
:102BC000030069460F48FDF7FBFB08BD70B50446DE
:102BD0000D4629462046FDF784FC78B92946204653
:102BE000FDF77FFC40B900BF29462046FDF779FC80
:102BF0000028F9D0002070BD0120FCE70120FAE791
:102C000000080140000C014008B58020ADF800002C
:102C100002208DF8020028208DF803006946BD4887
:102C2000FDF7CEFB08BD08B58020ADF800000220FE
:102C30008DF8020010208DF803006946B548FDF7B5
:102C4000BFFB08BD10B5044624B18021B148FDF793
:102C500062FC03E08021AF48FDF75FFC10BD10B5BA
:102C6000044624B14021AB48FDF755FC03E0402168
:102C7000A848FDF752FC10BD10B58021A548FDF70E
:102C800030FC10BD002100E0491C8142FCD370479C
:102C900010B50120FFF7D6FF4FF4FA70FFF7F2FFEF
:102CA0000120FFF7DCFF4FF4FA70FFF7EBFF002085
:102CB000FFF7C8FF4FF4FA70FFF7E4FF0020FFF7BB
:102CC000CEFF4FF4FA70FFF7DDFF10BD10B5002006
:102CD000FFF7C5FF4FF4FA70FFF7D4FF0020FFF7AE
:102CE000B1FF4FF4FA70FFF7CDFF0120FFF7B7FFF8
:102CF0004FF4FA70FFF7C6FF0120FFF7A3FF4FF470
:102D0000FA70FFF7BFFF10BD10B50524FFF77CFF79
:102D10004FF4FA70FFF7B6FF0120FFF7A0FF4FF462
:102D2000FA70FFF7AFFF0CE0601E84B24FF4FA7048
:102D3000FFF7A8FF2CB9FFF776FFFFF7C7FF0020CA
:102D400010BDFFF799FF0028EED1FFF76CFF0020C0
:102D5000FFF785FF4FF4FA70FFF794FF0120EFE7CC
:102D600010B50020FFF76EFF4FF4FA70FFF78AFFEF
:102D70004FF4FA70FFF786FF0120FFF770FF4FF462
:102D8000FA70FFF77FFF0020FFF769FF4FF4FA703A
:102D9000FFF778FF10BD10B50120FFF753FF4FF488
:102DA000FA70FFF76FFF0120FFF759FF4FF4FA7039
:102DB000FFF768FF0020FFF752FF4FF4FA70FFF7AC
:102DC00061FF10BD70B5044608251BE00020FFF729
:102DD00046FF4FF4FA70FFF755FF04F08000FFF74D
:102DE00031FF4FF4FA70FFF74DFF6006040E4FF409
:102DF000FA70FFF747FF0120FFF731FF4FF4FA7039
:102E0000FFF740FF2800A5F10101CDB2DED1FFF7A9
:102E100026FF4FF4FA70FFF735FF70BD70B5082537
:102E20000024FFF7F1FE16E06006040E0020FFF715
:102E300016FF4FF4FA70FFF725FF4FF4FA70FFF713
:102E400021FF0120FFF70BFF4FF4FA70FFF71AFF85
:102E5000FFF712FF04432800A5F10101CDB2E3D131
:102E6000FFF7FDFE4FF4FA70FFF70CFFFFF7DBFEF4
:102E7000204670BD08B501210820FDF757FDC02090
:102E8000ADF8000002208DF8020010208DF803003C
:102E900069462048FDF794FA08BD70B505460C4612
:102EA000FFF7F6FEA020FFF78DFFFFF72DFF284666
:102EB000FFF788FFFFF728FF2046FFF783FFFFF7A4
:102EC00023FFFFF703FF0520FFF752F870BD10B591
:102ED0000446FFF7DDFEA020FFF774FFFFF714FFA5
:102EE0002046FFF76FFFFFF70FFFFFF7D1FEA1208E
:102EF000FFF768FFFFF708FFFFF790FF064908702C
:102F0000FFF749FFFFF7E2FE0520FFF731F802481F
:102F1000007810BD000C01405A00002000B585B0BB
:102F200001212E48FDF70FFD0420ADF810001820F8
:102F30008DF8130003208DF8120004A92848FDF72E
:102F40003FFA0820ADF8100004208DF8130004A902
:102F50002348FDF735FA4FF4165000900020ADF8E5
:102F60000400ADF80600ADF80800ADF80C000C2028
:102F7000ADF80A0069461B48FEF741F9012240F20C
:102F800025511848FEF7D3F901211648FEF7C3F979
:102F900005B000BD08B54FF4E060FDF72FFD262019
:102FA0008DF8000001208DF8010000208DF802004E
:102FB00001208DF803006846FDF725FD08BD70B5BA
:102FC00004460D46E1B20748FEF712FA00BF054875
:102FD000008810F0800FFAD0204670BD0400020077
:102FE00000080140004400402DE9FE4F81EA03043F
:102FF00004F0004421F0004100944FF0000B23F056
:10300000004350EA010402D052EA030404D1002034
:10301000014603B0BDE8F08FC3F30A54C1F30A556B
:103020002C44A4F2F3340194A0FB0254C1F3130125
:1030300041F48011C3F3130343F4801301FB0244F2
:1030400000FB034E840A970A44EA815447EA8357F7
:10305000A4FB076802958D0A05FB07854FEA932CB0
:1030600004FB0C542705029D4FEA065847EA163721
:10307000B5EB08056EEB070C870E920E47EA811739
:1030800042EA8312A7FB0201B6EB0B0164EB0004DA
:103090002B0D43EA0C335E1844EB1C50DA465146C4
:1030A000E7FB0201C5F313044FEA0B3343EA145361
:1030B0004FEA0432019C43EA0603A4F10C04029493
:1030C000009CCDE900B400F067F9A2E72DE9F04DCE
:1030D00081EA030404F0004B21F0004514464FF050
:1030E000000A23F0004150EA050220D054EA010210
:1030F0001DD0C5F30A570246C5F31303C1F31300ED
:10310000C1F30A5640F4801543F48013A7EB060878
:10311000101BD64608F2FD3873EB050002D308F108
:10312000010801E092185B41B8F1000F03DA0020BA
:103130000146BDE8F08D00204FF48011064684461C
:103140000EE0171B73EB050705D3121B63EB05039A
:1031500006434CEA010C49084FEA300092185B41E3
:1031600050EA0107EDD152EA030012D082EA0400CE
:1031700083EA0501084303D100224FF0004308E031
:10318000101BAB4102D20122002302E06FF00102CA
:1031900053101AEB06004CEB085110EB0A0041EB00
:1031A0000B01BDE8F04D00F0EAB8C10F80EAE07015
:1031B0000844CA079623002100F0B4B80EB540F2C7
:1031C000334102910021CDE900110A460B4600F07F
:1031D000E3F803B000BD20F00040C10DC0F31600BD
:1031E00040F400007F2901DA00207047962903DCB3
:1031F000C1F19601C840704796398840704700F089
:10320000004230F000400AD0C10D01F56071C0F3FA
:10321000160042EA0151C2084007114370470020DE
:103220000146704701F0004330B421F0004150EAFC
:10323000010206D00A0DA2F56072C1F31301002A43
:1032400002DC30BC00207047440F44EAC104C100D6
:10325000E01830BC00EBC25000F05BB8002801DB86
:10326000C0F10040002901DBC1F1004181427047FB
:10327000002801DBC0F10040002901DBC1F1004161
:103280008842704730B50B460146002020220124B9
:1032900009E021FA02F59D4205D303FA02F5491B24
:1032A00004FA02F52844151EA2F10102F1DC30BD3A
:1032B0002DE9F05F0546002092469B46884606466B
:1032C000814640241BE0284641464746224600F0FE
:1032D000AAF953465A46C01A914110D311461846CE
:1032E000224600F091F92D1A67EB01084F4622465D
:1032F0000120002100F088F917EB00094E41201E43
:10330000A4F10104DFDC484631462A464346BDE8C5
:10331000F09F0029A8BF7047401C490008BF20F05B
:103320000100704710B4B0FA80FC00FA0CF050EACB
:10333000010404BF10BC704749B1CCF1200421FA4C
:1033400004F411FA0CF118BF012121430843A3EB47
:103350000C01CB1D0106000A002BBEBF002010BCD3
:10336000704700EBC35010440029A4BF10BC704745
:10337000401C490008BF20F0010010BC704710B588
:10338000002B08DA401C41F1000192185B411A43FE
:1033900001D120F0010010BD2DE9F04D92469B4671
:1033A00011B1B1FA81F202E0B0FA80F22032904617
:1033B00000F02AF904460F4640EA0A0041EA0B01F0
:1033C00053465A46084303D120463946BDE8F08D9E
:1033D000114653EA010015D0C8F14002504600F0F2
:1033E00022F905460E4650465946424600F00CF971
:1033F000084301D0012000E00020054346EAE076C2
:103400002C4337430A984FEA4453A0EB08004FEA95
:10341000D4240A304FF0000244EA47544FEAD7253B
:1034200002D500200146D1E7010510196941DDE907
:10343000084500196941BDE8F04DA0E72DE9FE4FB0
:10344000804681EA0300C00F0C46009021F0004145
:1034500023F00045B8EB0200A94105D240462146C1
:1034600090461C460B46024623F00040104304D110
:103470004046214603B0BDE8F08F270DC7F30A0090
:10348000C3F30A510290401A0190402866DAC3F350
:10349000130040F4801B0098924620B10023D2EB29
:1034A000030A63EB0B0B01985946C0F140025046EA
:1034B00000F0AAF806460D4650465946019A00F01B
:1034C000C2F810EB08006141002487EA115284EA37
:1034D000E7731A433BD0009A3AB3019A012A4FEAA4
:1034E000075210DC001B61EB02014FF0004202EAC0
:1034F0000752CDE90042001C41F5801132462B46AF
:10350000FFF74AFFB6E7001B61EB0201001C41F523
:10351000801300185B412018A2F5001747EB030148
:1035200040EAD570B6196D4111E06D084FEA3606D4
:1035300045EAC0754FEA0752001B61EB0201001C0F
:1035400041F5801149084FEA3000001951413246D7
:103550002B4603B0BDE8F04FFFF711BF00980122E2
:1035600040000023D0EB020263EBE0730098214699
:103570004FEAE074B8EB000061EB0401E9E783F087
:1035800000435BE781F0004158E7C1F30A52C1F301
:10359000130140F2FF3341F480119A4202DA002015
:1035A0000146704740F233439A42A2F2334202DCB2
:1035B000524200F038B800F027B8000030B50029BA
:1035C00004DB4FF00044404264EB0101002B04DBBC
:1035D0004FF00044524264EB0303994208BF90420B
:1035E00030BD0000064C074D06E0E06840F00103E6
:1035F00094E8070098471034AC42F6D3FCF77AFD04
:103600005051000870510008202A04DB203A00FACB
:1036100002F1002070479140C2F1200320FA03F329
:10362000194390407047202A04DB203A21FA02F027
:103630000021704721FA02F3D040C2F120029140EC
:10364000084319467047202A06DBCB17203A41FA77
:1036500002F043EAE07306E041FA02F3D040C2F11F
:103660002002914008431946704700000FB4054BF3
:1036700010B503A9044A029800F0DAF810BC5DF80E
:1036800014FB0000BF2F00085C0000200FB4084BA3
:1036900010B504A902AA039800F0CAF8044602A9CA
:1036A000002000F068FC204610BC5DF814FB000010
:1036B000773F000802E008C8121F08C1002AFAD1AB
:1036C00070477047002001E001C1121F002AFBD1A2
:1036D000704700002DE9FF5FDDE90220010DDDF8F4
:1036E00038B0024310D10F9801244CA2012808D011
:1036F000002100980F9BC0E90021C0E90243BDE80A
:10370000FF9F6FEA0B01F4E7A1F2FF3144F610507E
:1037100041430D140F9801280ED0A5EB0B00401C5F
:103720004FF000043E4EDFF8FC90B0F1000AA046D6
:1037300005DACAF1000717E0CBF10000F0E7074611
:1037400012E0F80707D02246334640464946FFF7C5
:103750004BFC804689462246334610461946FFF701
:1037600043FC04460E467F10002FEAD1DDE902013A
:10377000BAF1000F42464B4602DAFFF735FC01E092
:10378000FFF7A4FC04460E460022274BFFF716FF66
:1037900003D84FF0FF30014607E00022234B2046BC
:1037A0003146FFF74BFEFFF7F0FE102409E0002C36
:1037B0000ADB0A220023FFF77BFD019B30321A55FA
:1037C000641E50EA0102F2D1641C019AC4F1110393
:1037D00014440F9A012A09D00122084301D15B4504
:1037E0000FDD4FF0000205F101050DE0084303D1A4
:1037F000A3EB0B056D1E09E000204FF0110B0F909D
:1038000088E701DA00226D1E002A83D000980F9904
:10381000C0E90231C0E9004571E700003000000056
:10382000000024400000F03F0000F0430000E03FB3
:103830002DE9FF4F95B09B4689460646002512E2CA
:10384000252878D10024761CF94A274601210594C1
:103850003378203B01FA03F0104202D00443761C77
:10386000F6E730782A2811D06FF02F033078A0F1D6
:103870003002092A16D8059A44F0020402EB8202AB
:1038800003EB42021044761C0590EFE759F8042B35
:103890000592002A03DA504244F40054059044F0A3
:1038A0000204761C30782E2816D116F8010F44F049
:1038B00004042A280DD06FF02F023078A0F13003D5
:1038C000092B09D807EB870302EB4303C718761CC3
:1038D000F3E759F8047B761C30786C280FD006DCAF
:1038E0004C2817D068280DD06A2814D104E0742819
:1038F00010D07A280FD10DE044F400140AE044F40B
:10390000801401E044F440147278824202D1761CA3
:1039100004F58014761C307866280BD013DC582808
:1039200077D009DC002875D04528F6D04628F4D099
:1039300047281AD19FE118E0632835D0642879D050
:10394000652812D197E1702873D008DC6728F1D080
:1039500069286FD06E280DD06F2806D1B5E0732886
:103960002CD0752875D0782874D05A46179990476E
:103970006D1C76E1C4F30250022809D003280DD053
:10398000D9F8001004280DD00D6009F1040968E190
:10399000D9F80010EA17C1E90052F6E7D9F800108B
:1039A0000D80F2E70D70F0E719F8041B8DF8001098
:1039B00000208DF80100EA46012003E059F804AB2D
:1039C0004FF0FF3061074FF0000102D40DE008F125
:1039D00001018846B9420FDA8045F8DB1AF8081071
:1039E0000029F4D108E008F1010188468142FADBA0
:1039F0001AF808100029F6D105985B46A0EB0807D5
:103A000021463846179A00F09EFA284400EB080534
:103A100007E04DE02BE10DE01AF8010B5A4617992B
:103A20009047B8F10108F7D25B4621463846179A0D
:103A300014E142E00A220092C4F302524FF0000A5D
:103A4000022A08D059F804CB032A4FEAEC710AD0B5
:103A50000DE029E02AE009F1070121F00702F2E870
:103A600002C1914609E00FFA8CFC4FEAEC71042A7E
:103A700003D14FFA8CFC4FEAEC71002907DA0A46B1
:103A80000021DCF1000C61EB02012D2202E0220595
:103A900004D52B228DF80420012203E0E20701D097
:103AA0002022F7E7904653E00A2102E010220DE0C1
:103AB00010214FF0000A00910BE010224FF0000A95
:103AC00044F004040827009203E008224FF0000AA3
:103AD0000092C4F30252022A05D059F804CB002107
:103AE000032A08D009E009F1070121F00702F2E8F2
:103AF00002C1914605E01FFA8CFC042A01D10CF0AA
:103B0000FF0C4FF00008220722D5702827D0009B19
:103B100083F0100353EA0A0309D15CEA010206D0DC
:103B200030228DF804208DF8050002229046009B7B
:103B300083F0080353EA0A030AD15CEA010201D1C7
:103B4000620705D530228DF804204FF001087F1E52
:103B5000582809D037A003900EA8029013E0402205
:103B60008DF804200122E1E737A0F4E753466046D0
:103B7000009AFFF79DFB84460398825C0298A0F1AF
:103B80000100029002705CEA0100EFD1029806A9E0
:103B9000A1EB000000F1200A600702D524F4803474
:103BA00000E00127574502DDA7EB0A0000E00020F6
:103BB00000EB0A01009005984144A0EB010005903C
:103BC000E00306D45B462146179A059800F0BBF93E
:103BD0000544002706E001A85A46C05D17999047A2
:103BE0006D1C7F1C4745F6DBE0030CD55B46214688
:103BF000179A059800F0A7F9054404E030205A46CA
:103C0000179990476D1C0099481E00900029F5DC1B
:103C100008E0029802995A460078491C02911799C7
:103C200090476D1CBAF10001AAF1010AF1DC6BE1C9
:103C30000928010030313233343536373839616282
:103C40006364656600000000303132333435363746
:103C500038394142434445460000000000F060F915
:103C6000054406F10106307800287FF4E9AD19B06B
:103C70002846BDE8F08F620700D4062709F1070245
:103C800022F0070CFCE80223E14603F000485FEA5B
:103C9000080C02D00FF27C2C0DE05FEA045C02D528
:103CA0000FF2742C07E05FEAC47C02D00FF26C2C98
:103CB00001E0AFF2700C4FF0FF3823F00043CDF875
:103CC00050C065280CD006DC452809D046281DD0F8
:103CD00047283ED13EE0662818D0672839D139E020
:103CE0000021112F01DB112000E0781CCDE900013B
:103CF00006A90EA8FFF7EEFCDDE90F010E9A03916D
:103D00000021009207F1010A04914EE04FF00040BB
:103D10000097CDE9011006A90EA8FFF7DBFCDDE94D
:103D20000F0203920E9B11990022DDF80CA0009364
:103D3000049219B907F1010100EB010AB7EB0A007F
:103D400004D4C0F1FF3007F1010A0490AAEB070088
:103D5000019046E0012F00DA01270021112F01DD3B
:103D6000112000E03846CDE9000106A90EA8FFF7B2
:103D7000B1FCDDE90F010E9A03910021049100923C
:103D8000BA4621070CD40399514500DA8A46BAF1A4
:103D9000010F05DD009AAAF10101515C302908D01C
:103DA000B84202DA10F1040F06DA0121CDE9011060
:103DB00017E0AAF10101E9E7002805DC04990144B4
:103DC0000491AAEB000102E0411C514500DD8A4646
:103DD0000499A0EB010000F1010001904FF00040B8
:103DE0000290200704D40198504501DBCDF80480EF
:103DF00000208DF84F0002980DF14F07B0F1004FF1
:103E000025D02B200E9002984FF0020800280CDAE3
:103E1000404202902D200E9007E00A210298FFF701
:103E200031FA3031029007F8011DB8F10001A8F114
:103E30000108F2DC02980028EFD1791E0E98087074
:103E4000307800F0200040F0450007F8020D12A87D
:103E5000A0EB070000F107081498007800B10120DA
:103E600000EB0A01019801EBE07105984144A0EBD9
:103E70000100A0F101000590E00306D45B46214655
:103E8000179A059800F05FF805441498007820B15F
:103E90005A461799904705F10105E00323D55B4683
:103EA0002146179A059800F04EF805441BE0049847
:103EB000002807DBDDE90301884203DD0098405C50
:103EC000179901E0179930205A46904704986D1CC5
:103ED000401C04900198401E019004D12E205A46A7
:103EE000179990476D1CBAF10001AAF1010ADEDCB6
:103EF00005E017F8010B5A46179990476D1CB8F169
:103F00000001A8F10108F4DC5B462146179A0598E8
:103F1000A4E600002D0000002B000000200000009F
:103F20002DE9F041044600251E461746880405D4B5
:103F300006E039462020B04705F10105641EF8D59A
:103F40002846BDE8F0812DE9F041044600251E46D3
:103F50009046C80301D5302700E02027880405D506
:103F600006E041463846B04705F10105641EF8D524
:103F70002846BDE8F0810A68531C0B60107070473A
:103F80000000000000000000000000000000000031
:103F90000000000000000000000000000000000021
:103FA0000000000000000000000000000000000011
:103FB000000080018001800180018001800180017A
:103FC00080018001800180018001800100000000EB
:103FD00080018001000000000000000000000000DF
:103FE00000000000CC00CC00CC00CC00CC00CC0009
:103FF00000000000000000000000000000000000C1
:1040000000000000000000000000000000000000B0
:10401000000000000000000000000000600C600CC8
:10402000600C30063006FE1FFE1F300638071803EE
:10403000FE1FFE1F180318038C018C018C01000069
:1040400000008000E003F80F9C0E8C1C8C188C0084
:104050009800F801E007800E801C8C188C189C18C2
:10406000B80CF00FE00380008000000000000000AA
:104070000000000000000E181B0C110C11061106A8
:10408000110311039B018E01C038C06C6044604471
:10409000304430441844186C0C3800000000000014
:1040A0000000E001F0033807180618063003F0019D
:1040B000F000F8009C310E33061E061C061C063F5D
:1040C000FC73F02100000000000000000000000070
:1040D000000000000C000C000C000C000C000C0098
:1040E00000000000000000000000000000000000D0
:1040F00000000000000000000000000000000000C0
:104100000000000200038001C000C00060006000E9
:10411000300030003000300030003000300030001F
:1041200060006000C000C0008001000300020000C9
:10413000000020006000C000800180010003000337
:10414000000600060006000600060006000600063F
:104150000003000380018001C00060002000000017
:10416000000000000000000000000000C000C000CF
:10417000D806F807E001300338070000000000000F
:10418000000000000000000000000000000000002F
:10419000000000000000000000000000800180011D
:1041A000800180018001FC3FFC3F80018001800193
:1041B00080018001000000000000000000000000FD
:1041C00000000000000000000000000000000000EF
:1041D00000000000000000000000000000000000DF
:1041E000000080018001000100018000000000004B
:1041F00000000000000000000000000000000000BF
:104200000000000000000000E007E00700000000E0
:10421000000000000000000000000000000000009E
:10422000000000000000000000000000000000008E
:10423000000000000000000000000000000000007E
:104240000000C000C00000000000000000000000EE
:104250000000000C000C000600060006000300032E
:1042600000038003800180018001C000C000C00005
:10427000600060000000000000000000000000007E
:104280000000E003F007380E180C0C180C180C187E
:104290000C180C180C180C180C180C18180C380EDC
:1042A000F007E00300000000000000000000000034
:1042B000000000018001C001F00198018801800127
:1042C00080018001800180018001800180018001E6
:1042D00080018001000000000000000000000000DC
:1042E0000000E003F80F180C0C180C180018001848
:1042F000000C000600038001C000600030001800C0
:10430000FC1FFC1F00000000000000000000000077
:104310000000E001F807180E0C0C0C0C000C000655
:10432000C003C007000C001800180C180C18180C5B
:10433000F807E0030000000000000000000000009B
:104340000000000C000E000F000F800DC00C600C70
:10435000600C300C180C0C0CFC3FFC3F000C000CEB
:10436000000C000C00000000000000000000000035
:104370000000F80FF80F180018000C00EC03FC0701
:104380001C0E001C0018001800180C181C0C180E2D
:10439000F807E0030000000000000000000000003B
:1043A0000000C007F00F381C181818000C00CC03D0
:1043B000EC0F3C0E1C1C0C180C180C18181C380E9A
:1043C000F007E00300000000000000000000000013
:1043D0000000FC1FFC1F000C000600060003800309
:1043E0008001C001C000E00060006000700030008B
:1043F000300030000000000000000000000000005D
:104400000000E003F007380E180C180C180C3806E2
:10441000F007F007180C0C180C180C180C18380CB6
:10442000F80FE003000000000000000000000000A2
:104430000000E003F007380E1C0C0C180C180C18C8
:104440001C1C381EF81BE0190018000C000C1C0E78
:10445000F807F0010000000000000000000000006C
:10446000000000000000000000000000800180014A
:10447000000000000000000000000000000000003C
:10448000800180010000000000000000000000002A
:10449000000000000000000000000000800180011A
:1044A000000000000000000000000000000000000C
:1044B0008001800100010001800000000000000078
:1044C00000000000000000000000000000000000EC
:1044D0000010001C800FE003F8001800F800E00353
:1044E000800F001C00100000000000000000000011
:1044F00000000000000000000000000000000000BC
:10450000F81F000000000000F81F0000000000007D
:10451000000000000000000000000000000000009B
:10452000000000000000000000000000000000008B
:1045300008003800F001C007001F0018001FC00766
:10454000F00138000800000000000000000000003A
:104550000000E003F80F180C0C180C180018000CE1
:10456000000600038001C000C000C0000000000081
:10457000C000C000000000000000000000000000BB
:1045800000000000E00718180420C229224A114444
:1045900009440944094409221113E20C0240042091
:1045A0001818E007000000000000000000000000F4
:1045B000000080038003C006C006C006600C600CCB
:1045C000301830183018F83FF83F1C700C600C6041
:1045D00006C006C00000000000000000000000004F
:1045E0000000FC03FC0F0C0C0C180C180C180C0C25
:1045F000FC07FC0F0C180C300C300C300C300C1875
:10460000FC1FFC070000000000000000000000008C
:104610000000C007F01F38381C300C700660060020
:104620000600060006000600060006600C701C303E
:10463000F01FE00700000000000000000000000084
:104640000000FE03FE0F060E0618061806300630A0
:104650000630063006300630063006180618060EFC
:10466000FE0FFE030000000000000000000000003C
:104670000000FC3FFC3F0C000C000C000C000C0088
:10468000FC1FFC1F0C000C000C000C000C000C00AC
:10469000FC3FFC3F000000000000000000000000A4
:1046A0000000F83FF83F1800180018001800180024
:1046B000F81FF81F1800180018001800180018003C
:1046C00018001800000000000000000000000000BA
:1046D0000000E00FF83F3C780E6006E007C00300E2
:1046E000030003FE03FE03C007C006C00EC03CF07B
:1046F000F83FE00F00000000000000000000000094
:1047000000000C300C300C300C300C300C300C3005
:10471000FC3FFC3F0C300C300C300C300C300C30BB
:104720000C300C3000000000000000000000000011
:1047300000008001800180018001800180018001F2
:104740008001800180018001800180018001800161
:104750008001800100000000000000000000000057
:10476000000000060006000600060006000600061F
:1047700000060006000600060006180618063807A0
:10478000F003E00100000000000000000000000055
:10479000000006300618060C060606038601C60051
:1047A00066007600DE008E0106030606060C06187B
:1047B000063006600000000000000000000000005D
:1047C0000000180018001800180018001800180041
:1047D0001800180018001800180018001800180019
:1047E000F81FF81F0000000000000000000000009B
:1047F00000000EE01EF01EF01EF036D836D836D877
:1048000036D866CC66CC66CCC6C6C6C6C6C6C6C6D4
:1048100086C386C300000000000000000000000006
:1048200000000C301C303C303C306C306C30CC30F4
:10483000CC308C310C330C330C360C360C3C0C3C2D
:104840000C380C30000000000000000000000000E8
:104850000000E007F81F1C380E70066003C003C09C
:1048600003C003C003C003C003C006600E701C3841
:10487000F81FE0070000000000000000000000003A
:104880000000FC0FFC1F0C380C300C300C300C30CE
:104890000C18FC1FFC070C000C000C000C000C009A
:1048A0000C000C00000000000000000000000000F0
:1048B0000000E007F81F1C380E70066003E003C01C
:1048C00003C003C003C003C007E006630E3F1C3CE7
:1048D000F83FE0F700C0000000000000000000000A
:1048E0000000FE0FFE1F0638063006300630063880
:1048F000FE1FFE0706030606060C061806180630FD
:10490000063006600000000000000000000000000B
:104910000000E003F80F1C0C0C180C180C001C0015
:10492000F803E00F001E0038063006300E301C1C65
:10493000F80FE00700000000000000000000000089
:104940000000FE7FFE7F80018001800180018001E8
:10495000800180018001800180018001800180014F
:104960008001800100000000000000000000000045
:1049700000000C300C300C300C300C300C300C3093
:104980000C300C300C300C300C300C300C30181853
:10499000F81FE00700000000000000000000000019
:1049A000000003600630063006300C180C180C1896
:1049B000180C180C380E30063006700760036003C0
:1049C000C001C00100000000000000000000000065
:1049D00000000360C361C361C3616633663366333D
:1049E0006633663366336C1B6C1B6C1B2C1A3C1EC7
:1049F000380E380E0000000000000000000000002B
:104A000000000FE00C7018303018700C600EC007FA
:104A100080038003C003E006700C301C18180C30B3
:104A20000E6007E000000000000000000000000031
:104A3000000003C006600C301C383818300C6006CB
:104A4000E007C003800180018001800180018001B6
:104A50008001800100000000000000000000000054
:104A60000000FC7FFC7F006000300018000C000696
:104A700000038001C0006000300018000C00060038
:104A8000FE7FFE7F0000000000000000000000002C
:104A90000000E003E0036000600060006000600070
:104AA0006000600060006000600060006000600006
:104AB00060006000600060006000E003E003000050
:104AC000000030003000600060006000C000C000E6
:104AD000C000C001800180018001000300030003C9
:104AE00000060006000000000000000000000000BA
:104AF0000000E003E00300030003000300030003E1
:104B0000000300030003000300030003000300038D
:104B100000030003000300030003E003E0030000C0
:104B200000000000C001C0016003600360033006A4
:104B30003006180C180C00000000000000000000F7
:104B40000000000000000000000000000000000065
:104B50000000000000000000000000000000000055
:104B60000000000000000000000000000000000045
:104B70000000FFFFFFFF0000000000000000000039
:104B800000000C000C000C000C000C000C000000DD
:104B90000000000000000000000000000000000015
:104BA0000000000000000000000000000000000005
:104BB000000000000000000000000000F003F80703
:104BC0001C0C0C0C000FF00FF80C0C0C0C0C1C0F38
:104BD000F80FF018000000000000000000000000C6
:104BE000000018001800180018001800D803F80F6B
:104BF000380C181818181818181818181818380C0D
:104C0000F80FD803000000000000000000000000C2
:104C1000000000000000000000000000C003F007DA
:104C2000300E180C1800180018001800180C300E60
:104C3000F007C003000000000000000000000000BA
:104C4000000000180018001800180018C01BF01F02
:104C5000301C181818181818181818181818301C9C
:104C6000F01FC01B0000000000000000000000005A
:104C7000000000000000000000000000C003F00F72
:104C8000300C1818F81FF81F180018003818301CBE
:104C9000F00FC0070000000000000000000000004E
:104CA0000000800FC00FC000C000C000F007F00778
:104CB000C000C000C000C000C000C000C000C000F4
:104CC000C000C00000000000000000000000000064
:104CD000000000000000000000000000E00DF80FE0
:104CE000180E0C0C0C0C0C0C0C0C0C0C0C0C180EE8
:104CF000F80FE00D000C0C0C1C06F807F00100008A
:104D0000000018001800180018001800D807F80F45
:104D1000381C1818181818181818181818181818EF
:104D20001818181800000000000000000000000023
:104D30000000C000C000000000000000C000C00073
:104D4000C000C000C000C000C000C000C000C00063
:104D5000C000C000000000000000000000000000D3
:104D60000000C000C000000000000000C000C00043
:104D7000C000C000C000C000C000C000C000C00033
:104D8000C000C000C000C000C000F80078000000F3
:104D900000000C000C000C000C000C000C0C0C06AD
:104DA0000C038C01CC006C00FC009C018C030C03F8
:104DB0000C060C0C000000000000000000000000C9
:104DC0000000C000C000C000C000C000C000C000A3
:104DD000C000C000C000C000C000C000C000C000D3
:104DE000C000C00000000000000000000000000043
:104DF0000000000000000000000000007C3CFF7E7E
:104E0000C7E383C183C183C183C183C183C183C11C
:104E100083C183C10000000000000000000000000A
:104E20000000000000000000000000009807F80FDC
:104E3000381C1818181818181818181818181818CE
:104E40001818181800000000000000000000000002
:104E5000000000000000000000000000C003F00F90
:104E6000300C181818181818181818181818300CAA
:104E7000F00FC00300000000000000000000000070
:104E8000000000000000000000000000D803F80F40
:104E9000380C181818181818181818181818380C6A
:104EA000F80FD803180018001800180018000000A8
:104EB000000000000000000000000000C01BF01F08
:104EC000301C181818181818181818181818301C2A
:104ED000F01FC01B00180018001800180018000070
:104EE000000000000000000000000000B007F00318
:104EF00070003000300030003000300030003000F2
:104F00003000300000000000000000000000000041
:104F1000000000000000000000000000E003F003BB
:104F2000380E180C3800F003C007000C180C380EAF
:104F3000F007E00300000000000000000000000097
:104F4000000000008000C000C000C000F007F007B3
:104F5000C000C000C000C000C000C000C000C00051
:104F6000C0078007000000000000000000000000F3
:104F700000000000000000000000000018181818D1
:104F80001818181818181818181818181818381C7D
:104F9000F01FE01900000000000000000000000009
:104FA0000000000000000000000000000C18180CB9
:104FB000180C180C300630063006600360036003DE
:104FC000C001C0010000000000000000000000005F
:104FD000000000000000000000000000C141C141CD
:104FE000C3616363636363633636363636361C1CCF
:104FF0001C1C1C1C00000000000000000000000041
:105000000000000000000000000000001C38381CF8
:10501000300C600660036003600360036006300CC0
:10502000381C1C38000000000000000000000000D8
:1050300000000000000000000000000018303018E0
:1050400030187018600C600CE00CC006C0068003BD
:105050008003800380018001C001F0007000000027
:10506000000000000000000000000000FC1FFC1F0A
:10507000000C000600038001C00060003000180032
:10508000FC1FFC1F000000000000000000000000EA
:10509000000000038001C000C000C000C000C000CC
:1050A000C00060006000300060004000C000C00030
:1050B000C000C000C000C00080010003000000006C
:1050C0000000800180018001800180018001800159
:1050D00080018001800180018001800180018001C8
:1050E0008001800180018001800180018001000039
:1050F00000006000C000C0018001800180018001CB
:10510000800100030003000600030001800180010C
:105110008001800180018001C0006000000000006B
:10512000000000000000000000000000000000007F
:10513000F010F81F080F0000000000000000000041
:10514000000000000000000000000000000000005F
:10515000705100080000002060000000B436000814
:10516000D051000860000020C8040000C4360008C8
:1051700000A24A0400000000000000000102030435
:1051800006070809000000000102030401020304ED
:1051900006070809020406080000FFFF00000000DF
:1051A0001E00000032000000460000000000000069
:1051B00000000101000000000000000000000000ED
:1051C00000000000000000000000000000000000DF
:04000005080000ED02
:00000001FF
