:020000040800F2
:1000000040040020450100086D0300086F0300084C
:1000100073030008770300087B030008000000005A
:100020000000000000000000000000007F03000846
:100030008103000800000000830300088503000816
:100040005F0100085F0100085F0100085F01000810
:100050005F0100085F0100085F0100085F01000800
:100060005F0100085F0100085F0100085F010008F0
:100070005F0100085F0100085F0100085F010008E0
:100080005F0100085F0100085F0100085F010008D0
:100090005F0100085F0100085F0100085F010008C0
:1000A0005F0100085F0100085F0100085F010008B0
:1000B0005F0100085F0100085F0100085F010008A0
:1000C0005F0100085F0100085F0100085F01000890
:1000D0005F0100085F0100085F0100085F01000880
:1000E0005F0100085F0100085F0100085F01000870
:1000F0005F0100085F0100085F0100085F01000860
:100100005F0100085F0100085F0100085F0100084F
:100110005F0100085F0100085F0100085F0100083F
:100120005F0100085F0100085F0100085F0100082F
:10013000DFF80CD000F08AFD00480047DB01000822
:10014000400400200648804706480047FEE7FEE7D7
:10015000FEE7FEE7FEE7FEE7FEE7FEE7FEE7FEE777
:100160004D0B00083101000800E0401E0028FCD1C2
:10017000704710B54FF48071784800F0E4FB4FF4FD
:100180008071764800F0DDFB4FF48071734800F019
:10019000DAFB10BD70B50446254600261AE04FF480
:1001A00080616E4800F0CFFB05F00100012804D10A
:1001B00001036A4800F0C5FB04E04FF48051674832
:1001C00000F0C1FB4FF48061644800F0BAFB6D1091
:1001D000701CC6B2082EE2DB70BD08B501211420E8
:1001E00000F039FA4FF6FF70ADF8000010208DF8DE
:1001F000030003208DF802006946584800F0F6FA23
:100200004FF6FF71554800F09CFB4FF6FF70ADF8BC
:10021000000010208DF8030003208DF802006946CD
:100220004E4800F0E3FA4FF480514C4800F08BFB4D
:100230004FF48061494800F086FB4FF480714748D5
:1002400000F081FB88E000253FE000241AE0FF2059
:10025000FFF7A0FFFFF78DFF4149485DFFF79AFFC9
:10026000FFF787FF0020FFF795FFFFF782FF3D496B
:10027000085DFFF78FFFFFF77CFF3B48FFF774FF38
:10028000601CC4B2082CE2DB00241AE0FF20FFF758
:1002900081FFFFF76EFF3249485DFFF77BFFFFF7F5
:1002A00068FF3049085DFFF775FFFFF762FF002028
:1002B000FFF770FFFFF75DFF2B48FFF755FF601C4E
:1002C000C4B2082CE2DB681CC5B2082DBDDB0025DA
:1002D0003FE000241AE02249485DFFF75BFFFFF78B
:1002E00048FFFF20FFF756FFFFF743FF0020FFF70F
:1002F00051FFFFF73EFF1B49085DFFF74BFFFFF77C
:1003000038FF1948FFF730FF601CC4B2082CE2DB4D
:1003100000241AE01249485DFFF73CFFFFF729FF70
:10032000FF20FFF737FFFFF724FF0E49085DFFF7B7
:1003300031FFFFF71EFF0020FFF72CFFFFF719FF2B
:100340000948FFF711FF601CC4B2082CE2DB681CEF
:10035000C5B2082DBDDB00BF75E7000000100140ED
:10036000080000200000002040420F00704700BF3E
:10037000FEE700BFFEE700BFFEE700BFFEE77047F5
:100380007047704770470000DB48006840F001008C
:10039000D949086008464068D8490840D6494860AD
:1003A00008460068D6490840D349086008460068F6
:1003B00020F4802008600846406820F4FE00486071
:1003C0004FF41F0088607047CB49096821F48031E1
:1003D000C94A11601146096821F480211160B0F505
:1003E000803F03D0B0F5802F0ED106E0C2490968E6
:1003F00041F48031C04A116007E0BF49096841F407
:10040000A021BD4A116000E000BF00BF704710B5D9
:1004100001460022002300204A11012A02D1B64CD5
:10042000236806E0022A02D1B34C236A01E0B24CF1
:10043000636A01F01F02012494401C4201D0012094
:1004400000E0002010BD70B500240025002600BF8C
:100450003120FFF7DCFF0646641CB4F5A06F01D025
:10046000002EF5D03120FFF7D2FF08B1012500E0C2
:100470000025284670BD014600209F4A106820F0E4
:10048000F80040EAC100106070479E49086070475C
:1004900002460020984B586820F47C1042EA010381
:1004A0001843954B58607047964908667047014657
:1004B0000020914A506820F00300084350607047C4
:1004C0008D48406800F00C007047014600208A4AC1
:1004D000506820F0F000084350607047014600204B
:1004E000854A506820F4E060084350607047014638
:1004F0000020814A506820F4605040EAC1005060FA
:10050000704729B17C4A527A02437B4B5A7206E00B
:10051000794A527AC343DBB21A40774B5A7270471A
:1005200079490860704701460020734A506820F4FA
:1005300040400843506070470021744A11706E4A71
:1005400082F82010012802D0042808D103E00121FC
:100550006E4A117004E005216C4A117000E000BF82
:1005600000BF70476A49086070476349096A0143E0
:10057000614A1162704767490860704730B50021D1
:100580000022002400235C4D6D6805F00C0121B1B0
:10059000042905D0082923D105E05F4D056022E03C
:1005A0005D4D05601FE0544D6D6805F47012524DAD
:1005B0006D6805F48034022505EB92421CB9574D55
:1005C000554305600BE04C4D6D6815F4003F03D0BA
:1005D000524D5543056002E04F4D5543056002E022
:1005E0004D4D056000BF00BF434D6D6805F0F00143
:1005F00009094B4D6B5C0568DD4045603E4D6D68FB
:1006000005F4E061090A464D6B5C4568DD40856094
:10061000394D6D6805F46051C90A414D6B5C456800
:10062000DD40C560344D6D6805F44041890B3D4D9A
:100630006B5CC568B5FBF3F5056130BD29B12E4A89
:10064000526902432C4B5A6104E02B4A526982439F
:10065000294B5A61704729B1274A92690243264BB8
:100660009A6104E0244A92698243234B9A6170475D
:1006700029B1214AD26902431F4BDA6104E01E4AC4
:10068000D26982431C4BDA61704729B11A4AD26899
:100690000243194BDA6004E0174AD2688243164BD2
:1006A000DA60704729B1144A12690243124B1A6189
:1006B00004E0114A126982430F4B1A6170471A49CC
:1006C000086070470F49C86470470B49C87170478C
:1006D0000948406A40F08070074948627047014607
:1006E0000020054A92680A4201D0012000E0002063
:1006F0007047014988727047001002400000FFF8FF
:10070000FFFFF6FE00004242D800424220100240A5
:10071000800442423C04424200127A0000093D003B
:1007200014000020240000204004424210B504467A
:10073000CA48844208D101210420FFF7A6FF002106
:100740000420FFF7A2FF46E0C548844208D10121FA
:100750000820FFF79AFF00210820FFF796FF3AE0F4
:10076000C048844208D101211020FFF78EFF0021EC
:100770001020FFF78AFF2EE0BB48844208D10121F8
:100780002020FFF782FF00212020FFF77EFF22E0DC
:10079000B648844208D101214020FFF776FF0021AE
:1007A0004020FFF772FF16E0B148844208D10121D2
:1007B0008020FFF76AFF00218020FFF766FF0AE034
:1007C000AC48844207D101218015FFF75EFF00216C
:1007D000A015FFF75AFF10BD10B501210846FFF71D
:1007E00054FF00210120FFF750FF10BD2DE9F0411B
:1007F000024600250026002000230024002791F84F
:1008000003C00CF00F0591F803C01CF0100F03D0CB
:1008100091F802C04CEA0505B1F800C01CF0FF0FCA
:1008200031D0146800202BE04FF0010C0CFA00F3DB
:10083000B1F800C00CEA03069E4220D183004FF0BD
:100840000F0C0CFA03F7BC4305FA03FC4CEA040452
:1008500091F803C0BCF1280F06D14FF0010C0CFA3F
:1008600000FCC2F814C00AE091F803C0BCF1480FC4
:1008700005D14FF0010C0CFA00FCC2F810C0401C6E
:100880000828D1D31460B1F800C0BCF1FF0F34DDEB
:10089000546800202EE000F1080C4FF0010808FA1F
:1008A0000CF3B1F800C00CEA03069E4221D183008C
:1008B0004FF00F0C0CFA03F7BC4305FA03FC4CEAAB
:1008C000040491F803C0BCF1280F05D100F1080C15
:1008D00008FA0CF8C2F8148091F803C0BCF1480F74
:1008E00007D100F1080C4FF0010808FA0CF8C2F823
:1008F0001080401C0828CED35460BDE8F0814FF62C
:10090000FF710180022181700421C170704702468D
:10091000002093680B4201D0012000E000207047C6
:100920000146886880B2704702460020D3680B42B7
:1009300001D0012000E0002070470146C86880B265
:10094000704701617047416170470AB1016100E081
:1009500041617047C16070474FF480320A43826141
:100960008161826182698269704702460020424B40
:1009700018684FF68073184040EA021008433E4B57
:10098000186070473D49C8617047F0B50A460023BA
:1009900000240021002500F00046B6F1004F02D1EE
:1009A000354EF16901E0344E7168C0F3034583B2FE
:1009B00000F44016B6F5401F08D121F070612E4EAC
:1009C000766826F070662C4F7E6012E000F4801688
:1009D000B6F5801F06D1032606FA05F4A14341F0BF
:1009E000706106E0460D360103FA06F6B14341F0A8
:1009F000706122B1460D360103FA06F6314300F06C
:100A00000046B6F1004F02D11B4EF16101E01A4ED3
:100A10007160F0BD30B500228B071C0F0F2303FA65
:100A200004F2154B08338C1053F824309343124CC6
:100A300008348D1044F8253023468C1053F82430A8
:100A40008C07240F00FA04F423430B4C08348D1058
:100A500044F8253030BD0A4908607047000801405D
:100A6000000C01400010014000140140001801403A
:100A7000001C014000200140000001400000204215
:100A8000DC00204200210020674A126842F48032D4
:100A9000654B1A6000BF644A126802F40030491CBA
:100AA00010B9B1F5A06FF6D15F4A126812F4003F99
:100AB00001D0012000E00020012842D15B4A1268E9
:100AC00042F01002594B1A601A46126822F00302D3
:100AD0001A601A46126842F002021A60524A5268BC
:100AE000514B5A601A4652685A601A46526842F48C
:100AF00080625A601A46526822F47C125A601A4682
:100B0000526842F4E8125A601A46126842F0807243
:100B10001A6000BF444A126812F0007FFAD0424ABD
:100B2000526822F00302404B5A601A46526842F063
:100B300002025A6000BF3C4A526802F00C02082AC6
:100B4000F9D1704710B5FFF79DFF10BD10B53648BD
:100B5000006840F0010034490860084640683449A4
:100B600008403149486008460068324908402E492B
:100B700008600846006820F4802008600846406845
:100B800020F4FE0048604FF41F008860FFF7DAFF92
:100B90004FF000602849086010BD10B5002100200A
:100BA0000022214B5B6803F00C0121B1042906D01F
:100BB000082928D107E0214B214C236027E01F4B57
:100BC0001F4C236023E0184B5B6803F47010164B36
:100BD0005B6803F48032022303EB904022B9194B87
:100BE0004343174C23600DE00F4B5B6813F4003F49
:100BF00004D0144B4343124C236003E00F4B434398
:100C00000F4C236003E00D4B0D4C236000BF00BF71
:100C1000054B5B68C3F303130B4CE15C084B1B688B
:100C2000CB40074C236010BD001002400020024062
:100C30000000FFF8FFFFF6FE08ED00E000127A006A
:100C40002800002000093D002C000020064C074D24
:100C500006E0E06840F0010394E80700984710348C
:100C6000AC42F6D3FFF768FA900C0008B00C00080D
:100C700002E008C8121F08C1002AFAD17047704765
:100C8000002001E001C1121F002AFBD170470000C3
:100C9000B00C0008000000203C000000700C0008B0
:100CA000EC0C00083C00002004040000800C00084C
:100CB00080402010080402017FBFDFEFF7FBFDFE3C
:100CC0000000000000000000010203040102030410
:100CD000060708090204060800A24A0400000000F2
:0C0CE000000000000102030406070809E0
:0400000508000131BD
:00000001FF
